:020000040800F2
:1000000000C00020BD440008794200088142000879
:10001000894200089142000899420008000000004F
:10002000000000000000000000000000A1420008E5
:10003000AF42000800000000BD420008CB420008AB
:100040000D4500080D4500080D450008D94200087F
:100050000D4500080D4500080D4500080D45000838
:100060000D450008ED420008FB4200080D45000860
:100070000D4500080D4500080D450008094300081E
:100080000D4500080D4500080D4500080D45000808
:100090000D4500080D4500080D4500080D450008F8
:1000A0000D4500080D4500080D4500080D450008E8
:1000B0000D45000800000000000000000D4500088C
:1000C0000D4500080D4500080D4500080D450008C8
:1000D0000D4500081D4300080D4500080D450008AA
:1000E0000D4500080D45000800000000000000005C
:1000F0000000000000000000000000000000000000
:10010000000000000D450008000000000D4500083B
:1001100000000000000000000D4500080D4500082B
:100120000D4500080D4500080D4500080D45000867
:100130000D45000800000000000000000000000065
:100140000D4500080D4500080D45000800000000A1
:100150000D4500080D450008314300080D45000815
:100160000D4500080D4500080D4500080000000081
:100170000D4500080D4500080000000000000000CB
:0C0180000D4500080D4500080D45000865
:1001900010B5054C237833B9044B13B10448AFF3C1
:1001A00000800123237010BDE0010020000000004A
:1001B00064E4000808B5034B1BB103490348AFF3DF
:1001C000008008BD00000000E401002064E4000895
:1001D00001F0FF01102A2BDB10F0070F08D010F8F8
:1001E000013B013A8B422DD010F0070F42B3F6D1FC
:1001F000F0B441EA012141EA014122F007047FF015
:1002000000070023F0E80256083C85EA010586EA6B
:10021000010685FA47F5A3FA87F586FA47F6A5FAA7
:1002200087F68EB9EED1F0BC01F0FF0102F00702B3
:1002300032B110F8013B013A83EA010313B1F8D15E
:100240000020704701387047002D06BF354603383F
:10025000073815F0010F07D1013015F4807F02BF78
:10026000013015F4C03F0130F0BC0138704700BFC9
:10027000034613F8012B002AFBD1181A01387047E6
:1002800081F0004102E000BF83F0004330B54FEA47
:1002900041044FEA430594EA050F08BF90EA020FB4
:1002A0001FBF54EA000C55EA020C7FEA645C7FEA47
:1002B000655C00F0E2804FEA5454D4EB5555B8BF6A
:1002C0006D420CDD2C4480EA020281EA030382EADB
:1002D000000083EA010180EA020281EA0303362D6D
:1002E00088BF30BD11F0004F4FEA01314FF4801C40
:1002F0004CEA113102D0404261EB410113F0004F52
:100300004FEA03334CEA133302D0524263EB430308
:1003100094EA050F00F0A780A4F10104D5F1200EA6
:100320000DDB02FA0EFC22FA05F2801841F1000101
:1003300003FA0EF2801843FA05F359410EE0A5F1D5
:1003400020050EF1200E012A03FA0EFC28BF4CF006
:10035000020C43FA05F3C01851EBE37101F00045BC
:1003600007D54FF0000EDCF1000C7EEB00006EEBC9
:100370000101B1F5801F1BD3B1F5001F0CD3490853
:100380005FEA30004FEA3C0C04F101044FEA4452AA
:1003900012F5800F80F09A80BCF1004F08BF5FEA31
:1003A000500C50F1000041EB045141EA050130BD11
:1003B0005FEA4C0C404141EB0101013C28BFB1F523
:1003C000801FE9D291F0000F04BF01460020B1FA6E
:1003D00081F308BF2033A3F10B03B3F120020CDA41
:1003E0000C3208DD02F1140CC2F10C0201FA0CF01F
:1003F00021FA02F10CE002F11402D8BFC2F1200C84
:1004000001FA02F120FA0CFCDCBF41EA0C01904039
:10041000E41AA2BF01EB0451294330BD6FEA040482
:100420001F3C1CDA0C340EDC04F11404C4F120026D
:1004300020FA04F001FA02F340EA030021FA04F37F
:1004400045EA030130BDC4F10C04C4F1200220FAD6
:1004500002F001FA04F340EA0300294630BD21FA14
:1004600004F0294630BD94F0000F83F4801306BFDA
:1004700081F480110134013D4EE77FEA645C18BFCE
:100480007FEA655C29D094EA050F08BF90EA020F65
:1004900005D054EA000C04BF1946104630BD91EA5D
:1004A000030F1EBF0021002030BD5FEA545C05D160
:1004B0004000494128BF41F0004130BD14F580049F
:1004C0003CBF01F5801130BD01F0004545F0FE4113
:1004D00041F470014FF0000030BD7FEA645C1ABF48
:1004E000194610467FEA655C1CBF0B46024650EA7F
:1004F000013406BF52EA033591EA030F41F40021AB
:1005000030BD00BF90F0000F04BF0021704730B530
:100510004FF4806404F132044FF000054FF0000105
:1005200050E700BF90F0000F04BF0021704730B5C6
:100530004FF4806404F1320410F0004548BF40429B
:100540004FF000013EE700BF42004FEAE2014FEAF0
:1005500031014FEA02701FBF12F07F4393F07F4FCB
:1005600081F06051704732F07F4208BF704793F0CE
:100570007F4F04BF41F40021704730B54FF46074E1
:1005800001F0004521F000411CE700BF50EA0102E4
:1005900008BF704730B54FF000050AE050EA01028D
:1005A00008BF704730B511F0004502D5404261EBFD
:1005B00041014FF4806404F132045FEA915C3FF43E
:1005C000D8AE4FF003025FEADC0C18BF03325FEADB
:1005D000DC0C18BF033202EBDC02C2F1200300FA8C
:1005E00003FC20FA02F001FA03FE40EA0E0021FAB1
:1005F00002F11444BDE600BF70B54FF0FF0C4CF49F
:10060000E06C1CEA11541DBF1CEA135594EA0C0F50
:1006100095EA0C0F00F0DEF82C4481EA030621EA8B
:100620004C5123EA4C5350EA013518BF52EA0335C6
:1006300041F4801143F4801338D0A0FB02CE4FF078
:100640000005E1FB02E506F00042E0FB03E54FF0A8
:100650000006E1FB03569CF0000F18BF4EF0010EA0
:10066000A4F1FF04B6F5007F64F5407404D25FEA9C
:100670004E0E6D4146EB060642EAC62141EA55514F
:100680004FEAC52040EA5E504FEACE2EB4F1FD0C91
:1006900088BFBCF5E06F1ED8BEF1004F08BF5FEA0F
:1006A000500E50F1000041EB045170BD06F00046C1
:1006B00046EA010140EA020081EA0301B4EB5C046E
:1006C000C2BFD4EB0C0541EA045170BD41F4801166
:1006D0004FF0000E013C00F3AB8014F1360FDEBF8B
:1006E000002001F0004170BDC4F10004203C35DA67
:1006F0000C341BDC04F11404C4F1200500FA05F3EA
:1007000020FA04F001FA05F240EA020001F000428A
:1007100021F0004110EBD37021FA04F642EB060100
:100720005EEA430E08BF20EAD37070BDC4F10C042A
:10073000C4F1200500FA04F320FA05F001FA04F2EE
:1007400040EA020001F0004110EBD37041F10001DA
:100750005EEA430E08BF20EAD37070BDC4F12005E5
:1007600000FA05F24EEA020E20FA04F301FA05F24D
:1007700043EA020321FA04F001F0004121FA04F2F5
:1007800020EA020000EBD3705EEA430E08BF20EAC5
:10079000D37070BD94F0000F0FD101F000464000FF
:1007A00041EB010111F4801F08BF013CF7D041EA81
:1007B000060195F0000F18BF704703F00046520085
:1007C00043EB030313F4801F08BF013DF7D043EA56
:1007D0000603704794EA0C0F0CEA135518BF95EA0C
:1007E0000C0F0CD050EA410618BF52EA4306D1D193
:1007F00081EA030101F000414FF0000070BD50EAB2
:10080000410606BF1046194652EA430619D094EA3B
:100810000C0F02D150EA013613D195EA0C0F05D125
:1008200052EA03361CBF104619460AD181EA030179
:1008300001F0004141F0FE4141F470014FF0000031
:1008400070BD41F0FE4141F4780170BD70B54FF0CC
:10085000FF0C4CF4E06C1CEA11541DBF1CEA13554C
:1008600094EA0C0F95EA0C0F00F0A7F8A4EB05042E
:1008700081EA030E52EA03354FEA013100F0888025
:100880004FEA03334FF0805545EA131343EA1263EE
:100890004FEA022245EA111545EA10654FEA0026A3
:1008A0000EF000419D4208BF964244F1FD0404F55C
:1008B000407402D25B084FEA3202B61A65EB0305B8
:1008C0005B084FEA32024FF480104FF4002CB6EB75
:1008D000020E75EB030E22BFB61A754640EA0C00F5
:1008E0005B084FEA3202B6EB020E75EB030E22BF35
:1008F000B61A754640EA5C005B084FEA3202B6EB76
:10090000020E75EB030E22BFB61A754640EA9C0034
:100910005B084FEA3202B6EB020E75EB030E22BF04
:10092000B61A754640EADC0055EA060E18D04FEAC2
:10093000051545EA16754FEA06164FEAC30343EA62
:1009400052734FEAC2025FEA1C1CC0D111F4801F2F
:100950000BD141EA00014FF000004FF0004CB6E728
:1009600011F4801F04BF01430020B4F1FD0C88BFC7
:10097000BCF5E06F3FF6AFAEB5EB030C04BFB6EBD2
:10098000020C5FEA500C50F1000041EB045170BDC5
:100990000EF0004E4EEA113114EB5C04C2BFD4EBF2
:1009A0000C0541EA045170BD41F480114FF0000E76
:1009B000013C90E645EA060E8DE60CEA135594EAF2
:1009C0000C0F08BF95EA0C0F3FF43BAF94EA0C0FF5
:1009D0000AD150EA01347FF434AF95EA0C0F7FF46A
:1009E00025AF104619462CE795EA0C0F06D152EABE
:1009F00003353FF4FDAE1046194622E750EA4106A2
:100A000018BF52EA43067FF4C5AE50EA41047FF4B2
:100A10000DAF52EA43057FF4EBAE12E74FF0FF3C17
:100A200006E000BF4FF0010C02E000BF4FF0010CE8
:100A30004DF804CD4FEA410C7FEA6C5C4FEA430C61
:100A400018BF7FEA6C5C1BD001B050EA410C0CBFB0
:100A500052EA430C91EA030F02BF90EA020F002012
:100A6000704710F1000F91EA030F58BF994208BF79
:100A700090422CBFD8176FEAE37040F00100704736
:100A80004FEA410C7FEA6C5C02D150EA013C07D18D
:100A90004FEA430C7FEA6C5CD6D152EA033CD3D0D8
:100AA0005DF8040B704700BF8446104662468C46D2
:100AB0001946634600E000BF01B5FFF7B7FF002805
:100AC00048BF10F1000F01BD4DF808EDFFF7F4FF2E
:100AD0000CBF012000205DF808FB00BF4DF808EDB9
:100AE000FFF7EAFF34BF012000205DF808FB00BFDC
:100AF0004DF808EDFFF7E0FF94BF012000205DF8FE
:100B000008FB00BF4DF808EDFFF7CEFF94BF0120B2
:100B100000205DF808FB00BF4DF808EDFFF7C4FFAB
:100B200034BF012000205DF808FB00BF4FEA410CF4
:100B30007FEA6C5C02D150EA013C0AD14FEA430CD7
:100B40007FEA6C5C02D152EA033C02D14FF0000014
:100B500070474FF0010070474FEA410212F5001252
:100B600015D211D56FF47873B3EB625212D94FEAF4
:100B7000C12343F0004343EA505311F0004F23FADE
:100B800002F018BF404270474FF00000704750EA33
:100B9000013005D111F0004008BF6FF000407047F0
:100BA0004FF00000704700BF53B94AB9002908BF91
:100BB00000281CBF4FF0FF314FF0FF3000F088B924
:100BC000ADF1080C6DE904CE00F006F8DDF804E0A4
:100BD000DDE9022304B070472DE9F047089D0F4678
:100BE00004468C46002B48D18A42164661D9B2FA97
:100BF00082F34BB1C3F1200201FA03FC20FA02F2A6
:100C00009E4042EA0C0C9C404FEA164EB7B2BCFB29
:100C1000FEF1220C0EFB11CC42EA0C4201FB07F064
:100C2000904209D9B21801F1FF3C80F0EE80904269
:100C300040F2EB8002393244121AA4B2B2FBFEF049
:100C40000EFB102244EA024400FB07F7A74209D931
:100C5000341900F1FF3280F0DA80A74240F2D780E9
:100C60003444023840EA0140E41B00211DB1DC405D
:100C70000023C5E90043BDE8F0878B4206D90DB1DA
:100C8000C5E9000100210846BDE8F087B3FA83F109
:100C9000002948D1BB4202D3824200F20781841A64
:100CA00067EB030201209446002DE4D0C5E9004C17
:100CB000E1E7002A00F09280B2FA82F3002B40F0C4
:100CC000A8808A1A4FEA164E1FFA86FC0121200CD2
:100CD000B2FBFEF70EFB172240EA02420CFB07F0C4
:100CE000904207D9B21807F1FF3802D2904200F2C1
:100CF000E2804746121AA4B2B2FBFEF00EFB1022AD
:100D000044EA02440CFB00FCA44507D9341900F165
:100D1000FF3202D2A44500F2CB801046A4EB0C04B3
:100D200040EA0740A2E7C1F120068B4022FA06FC08
:100D30004CEA030C07FA01F420FA06F3F7404FEAF5
:100D40001C49234300FA01F81FFA8CFEB7FBF9F0A7
:100D50001C0C09FB107744EA074400FB0EF7A7427E
:100D600002FA01F20AD91CEB040400F1FF3A80F008
:100D70009B80A74240F2988002386444E41B9FB2F3
:100D8000B4FBF9F309FB134447EA044403FB0EFEEA
:100D9000A64509D91CEB040403F1FF3780F08280DB
:100DA000A6457FD9023B644443EA0040A4EB0E040D
:100DB000A0FB02E7BC427346B94663D360D05DB185
:100DC000B8EB030264EB090404FA06F622FA01F315
:100DD0001E43CC40C5E9006400214CE76208480886
:100DE00042EAC1710B0C43EA00438AB242EA034271
:100DF000B3FBF6F1E407B4463746B6461F23B0FB13
:100E0000F6F0D21B41EA004161E7614614E7104663
:100E100028E7C3F1200120FA01F29E4027FA01F1F0
:100E20009F403A434FEA164E1FFA86FCB1FBFEF78D
:100E30000EFB1710110C41EA004107FB0CF8884526
:100E400004FA03F43AD9711807F1FF3001D288454A
:100E50001FD8A1EB0801B1FBFEF808FB0CF70EFB55
:100E6000181192B242EA0142BA422FD2B21808F1E6
:100E7000FF31C6D2BA42C4D2A8F102013244C0E75F
:100E8000F0459CD2BEEB020367EB0C070138B94674
:100E900095E7A6EB08084144B81EB1FBFEF808FB35
:100EA0000CF7DCE73B467FE7504667E70846FBE682
:100EB0003444023832E7023F32441BE7A1EB080119
:100EC0003846B1FBFEF808FB0CF7C8E7414698E747
:100ED000704700BF80B485B000AFF860B9601346BA
:100EE000FB80FB68BA681A60FB88DAB2FB681A718B
:100EF00000BF1437BD465DF8047B704780B58CB0E9
:100F000004AFF8607A601A460B467B8113463B813A
:100F10000023FB837B897B837B687B6139E07B8B50
:100F200003F01F037B827B8AC3F12003BB83BA8B50
:100F30003989FB8BCB1A9A4203DD3A89FB8BD31A92
:100F4000BB83FB681868FB681B7919467A8B64239E
:100F50000293BB8B01937B690093022305F0DCFEB7
:100F600003467B747B7C002B01D07B7C16E0052044
:100F700003F042FBFA8BBB8B1344FB837A8BBB8B56
:100F800013449BB2C3F30C037B83BB8B7A6913447A
:100F90007B61FA8B3B899A42C1D3002318462037E4
:100FA000BD4680BD80B588B004AFF8607A601A464F
:100FB0000B467B8113463B81FB681868FB681B79F5
:100FC00019467A894FF47A7302933B8901937B68BF
:100FD0000093022305F0B4FF034618461037BD46C0
:100FE00080BD80B485B000AFF860B9607A607B8066
:100FF000FB68BA681A60FB687A685A60FB687A888E
:101000001A81FB68BA69DA60FB68BA8B1A8200BF82
:101010001437BD465DF8047B704780B483B000AFE1
:101020000023FB7104E0FB79DBB20133DBB2FB711F
:10103000FB79DBB2132BF6D900BF00BF0C37BD46DE
:101040005DF8047B704780B582B000AF78600B46D6
:10105000FB707B6818697B689B8A0022194605F043
:101060008FFD7B6898697B68998BFB78002B14BF98
:1010700001230023DBB21A4605F082FDFFF7CDFF06
:101080007B6818697B689B8A0122194605F078FD08
:10109000FFF7C3FF00BF0837BD4680BD80B584B0F1
:1010A00000AF78600B467B8013467B707B78FB73C8
:1010B0000FE07A88FB7B013B42FA03F3DBB203F0DB
:1010C0000103DBB219467868FFF7BDFFFB7B013BEC
:1010D000FB73FB7B002BECD100BF00BF1037BD467C
:1010E00080BD80B582B000AF78600B467B807B68A6
:1010F00018687B689B880022194605F041FDFFF7C0
:101100008CFF7B880C2219467868FFF7C7FFFFF732
:1011100084FF7B6818687B689B880122194605F06C
:101120002FFD00BF0837BD4680BD80B586B000AF3B
:10113000F8607A601A460B46FB721346BB72FB6876
:101140001868FB689B880022194605F019FDFFF717
:1011500064FF03220521F868FFF7A0FFFB7A9BB22A
:1011600006221946F868FFF799FF0023FB750BE08C
:10117000FB7D7A6813441B7804221946F868FFF750
:101180008DFFFB7D0133FB75FA7DBB7A9A42EFD36D
:10119000FFF743FFFB681868FB689B88012219462C
:1011A00005F0EEFCFFF739FF00BF1837BD4680BDE4
:1011B00080B582B000AF78607B6803F11E02202307
:1011C00000217868FFF7B1FF00BF0837BD4680BD3A
:1011D00080B584B000AFF860B9603B601346FB8017
:1011E000FB68BA681A60FB68FA889A80FB683A68FC
:1011F0009A60FB683A8B9A81FB68FA691A61FB680E
:101200003A8C9A82FB687A6A9A61FB683A8D9A8373
:10121000FB681868FB689B880122194605F0B0FC42
:10122000FB681869FB689B8A0122194605F0A8FC37
:10123000F86800F03FF800BF1037BD4680BD80B5AC
:1012400082B000AF786040F602017868FFF749FF8E
:1012500000BF0837BD4680BD80B582B000AF786062
:1012600040F606017868FFF73CFF00BF0837BD462F
:1012700080BD80B582B000AF786040F60801786824
:10128000FFF72FFF40F60A017868FFF72AFF4FF4B7
:1012900001617868FFF725FF4FF403617868FFF775
:1012A00020FF40F652017868FFF71BFF00BF0837A8
:1012B000BD4680BD80B582B000AF78607B681E33CC
:1012C0002022002118460BF085F87868FFF770FFA0
:1012D00000BF0837BD4680BDB0B590B000AFF86024
:1012E00087ED020A0B46FB71C54B07F118041D463A
:1012F0000FCD0FC495E8030084E80300C14A07F14D
:10130000100392E8030083E803000023FB6300233B
:1013100087F83B30D7ED027AF5EEC07AF1EE10FA9D
:1013200040F1BA80D7ED027A9FEDB77AF4EEC77A32
:10133000F1EE10FA40F3B080D7ED027AF1EE677A61
:10134000C7ED0C7AD7ED027A9FEDB07AF4EEC77A4A
:10135000F1EE10FA12DDD7ED0C7A9FEDAD7A67EE63
:10136000877AB6EE007A77EE877AFCEEE77A17EEA8
:10137000903AFB63012387F83B300DE0D7ED0C7A00
:10138000B6EE007A77EE877AFCEEE77A17EE903ABF
:10139000FB63002387F83B30002387F83A300723AC
:1013A00087F839304BE0F96B9A4BA3FB0123DA083D
:1013B00013469B0013445B00CA1A97F93930D2B226
:1013C00040333B4403F8302CFB6B924AA2FB0323CF
:1013D000DB08FB6397F83A30013387F83A30FB6B50
:1013E000002B25D1D7ED027ABFEE007AF4EEC77A52
:1013F000F1EE10FA13DC27E097F93930DBB2013B4C
:10140000DBB287F8393097F9393040333B4400225A
:1014100003F8302C97F83A30013387F83A3097F8D0
:101420003A30032B10D897F93930002BE4DC0BE06D
:1014300097F93930DBB2013BDBB287F8393097F9E5
:101440003930002BAFDA00E000BF002387F83830D6
:101450001BE097F9383040333B4413F8303C0B2BFA
:101460000CD097F93830002B14DD97F93830013B58
:1014700040333B440A2203F8302C0BE097F9383014
:10148000DBB20133DBB287F8383097F93830072BFD
:10149000DFDDB0E000BFAEE0D7ED027AF5EEC07A56
:1014A000F1EE10FAC0F28E80D7ED027A9FED5A7AF3
:1014B000F4EEC77AF1EE10FA40F18480D7ED027AAB
:1014C0009FED567AF4EEC77AF1EE10FA12D5D7ED09
:1014D000027A9FED4F7A67EE877AB6EE007A77EE62
:1014E000877AFCEEE77A17EE903AFB63012387F8E0
:1014F0003B300DE0D7ED027AB6EE007A77EE877AD0
:10150000FCEEE77A17EE903AFB63002387F83B3056
:10151000002387F83730072387F836304BE0F96B24
:101520003C4BA3FB0123DA0813469B0013445B00EA
:10153000CA1A97F93630D2B240333B4403F8302C04
:10154000FB6B344AA2FB0323DB08FB6397F83730BD
:10155000013387F83730FB6B002B25D1D7ED027AAA
:10156000B7EE007AF4EEC77AF1EE10FA13D427E062
:1015700097F93630DBB2013BDBB287F8363097F9AA
:10158000363040333B44002203F8302C97F8373094
:10159000013387F8373097F83730032B10D897F995
:1015A0003630002BE4DC0BE097F93630DBB2013B40
:1015B000DBB287F8363097F93630002BAFDA1AE015
:1015C00000BF18E0002387F835300DE097F935307B
:1015D00040333B440A2203F8302C97F93530DBB214
:1015E0000133DBB287F8353097F93530072BEDDD65
:1015F000002387F83B30002387F834304BE000BFEE
:1016000080E4000898E400080050C3C700401CC6EE
:1016100000007A44CDCCCCCC20BCBE4C0050C3479B
:1016200097F8343040333B4413F8303C194697F870
:1016300034305B005A1C4B0040333B4413F8281CE9
:10164000FB6813440A469A7797F8343001335B00FD
:10165000FA6813449B7F5BB203F001035AB297F818
:10166000343040333B4413F8303C5B0040333B4460
:1016700013F8273C5BB213435AB297F83430013366
:101680005B00D1B2FA6813440A469A7797F834306F
:10169000013387F8343097F83430072BC0D9FB6812
:1016A00093F828305BB203F00E035AB297F93B303F
:1016B00013435BB2DAB2FB6883F82820FB68FA793F
:1016C00083F82F20F868FFF773FD00BF4037BD4651
:1016D000B0BD00BF80B590B000AF78600B46FB7026
:1016E00007F1280300221A605A609A60DA601A61D2
:1016F0005A6140F20F433B8540F607637B8540F615
:101700000F23BB8507F1100300221A605A609A600C
:10171000DA601A615A6140F60F233B824FF420636E
:101720007B8297F828207B68DA777B6893F82030F3
:101730005BB203F001035AB297F829305BB213434E
:101740005BB2DAB27B6883F8202097F82A207B68A6
:1017500083F821207B6893F822305BB203F0010309
:101760005AB297F82B305BB213435BB2DAB27B68A4
:1017700083F8222097F82A207B6883F823207B684F
:1017800093F824305BB203F001035AB297F82B3080
:101790005BB213435BB2DAB27B6883F8242097F81C
:1017A0002C207B6883F825207B6893F826305BB279
:1017B00003F001035AB297F82D305BB213435BB2CA
:1017C000DAB27B6883F8262097F82A207B6883F8B2
:1017D00027207B6893F828305BB203F001035AB2EC
:1017E00097F82B305BB213435BB2DAB27B6883F8B5
:1017F000282007F10C0300210A461A800A469A7035
:10180000FB789B08DBB203F00103DBB23B73FB7890
:101810005B08DBB203F00103DBB27B73FB7803F000
:101820000103DBB2BB733B7B5B0040333B4413F8EB
:10183000302C7B6883F829207B6893F82A305BB2D0
:1018400003F001035AB23B7B5B0040333B4413F887
:101850002F3C5BB213435BB2DAB27B6883F82A2079
:101860007B7B5B0040333B4413F8302C7B6883F870
:101870002B207B6893F82C305BB203F001035AB243
:101880007B7B5B0040333B4413F82F3C5BB213433C
:101890005BB2DAB27B6883F82C20BB7B5B00403301
:1018A0003B4413F8302C7B6883F82D207B6893F839
:1018B0002E305BB203F001035AB2BB7B5B004033B6
:1018C0003B4413F82F3C5BB213435BB2DAB27B6844
:1018D00083F82E207868FFF76BFC00BF4037BD46C9
:1018E00080BD80B582B000AF78600B46FB707B682E
:1018F00093F82A305BB203F00E035AB297F9033023
:1019000013435BB2DAB27B6883F82A207B6803F169
:101910002A0201230C217868FFF707FC00BF083773
:10192000BD4680BD80B582B000AF78600B46FB70CD
:101930007B6893F824305BB203F00E035AB297F938
:10194000033013435BB2DAB27B6883F824207B68F0
:1019500003F12402012306217868FFF7E6FB00BFAC
:101960000837BD4680BD80B584B000AFF860B9606F
:101970007A607B80FB68BA681A60FB68BA695A6053
:10198000FB68BA8B1A81FB683A6ADA60FB68BA8C2A
:101990001A82F86800F054F8FB681B687A88796846
:1019A000184609F03CFE00BF1037BD4680BD80B52B
:1019B00082B000AF78607B6858687B681B89012221
:1019C000194605F0DDF87B68D8687B681B8A012220
:1019D000194605F0D5F800BF0837BD4680BD80B573
:1019E00082B000AF78607B6858687B681B890022F2
:1019F000194605F0C5F87B68D8687B681B8A002209
:101A0000194605F0BDF800BF0837BD4680BD80B55A
:101A100082B000AF78607B6858687B681B890022C1
:101A2000194605F0ADF87B68D8687B681B8A0122EF
:101A3000194605F0A5F800BF0837BD4680BD000077
:101A400080B483B000AF7860044A7B68136000BF45
:101A50000C37BD465DF8047B704700BFFC010020D9
:101A600080B485B000AF78600B467B804FF6FF7383
:101A7000FB810023BB8126E0BB897A6813441B7875
:101A80001A46FB895340FB810023FB7215E0FB895A
:101A900003F00103002B0AD0FB895B08FB81FB8963
:101AA00083F4BF4383F07E03DB43FB8102E0FB89C9
:101AB0005B08FB81FB7A0133FB72FB7A072BE6D9CB
:101AC000BB890133BB81BA897B889A42D4D3FB8915
:101AD00018461437BD465DF8047B70472DE9F04386
:101AE00087B000AF78600B467B806B461E46394B53
:101AF0001B68002B01D1002365E0364B1B6818469C
:101B0000FFF755FF7B88591D4B1E7B610A4600235A
:101B1000904699464FF000024FF000034FEAC90388
:101B200043EA58734FEAC8020A46002314461D468A
:101B30004FF000024FF00003EB0043EA5473E20061
:101B40000B460733DB08DB00ADEB030D6B463B6157
:101B50003B69AA221A707B88DAB23B695A707B888B
:101B60001B0A9BB2DAB23B699A703B6903337A88ED
:101B7000796818460AF0ADFC7B8819467868FFF74B
:101B80006FFF0346FB817B880333FA89D1B23A6940
:101B9000D154FB891B0A9AB27B880433D1B23A69CB
:101BA000D1540C4B1B6818687B8805339AB26423A8
:101BB000396908F0DCFA03467B73064B1B6818464C
:101BC000FFF70DFF7B7BB54618461C37BD46BDE8C9
:101BD000F08300BFFC01002080B586B000AFF86044
:101BE0007A603B600B46FB72FB7A052B01D8002321
:101BF0004AE0FB681B78AA2B01D0002344E0FB6875
:101C000001331B781AB2FB6802331B781BB21B022C
:101C10001BB213431BB2FB82FB8A0333FA681344E3
:101C20001B781AB2FB8A0433F9680B441B781BB289
:101C30001B021BB213431BB2BB82FB680333FA8A3D
:101C400011461846FFF70CFF03467B82BA8A7B8A4F
:101C50009A4201D0002317E0FB8ADAB23B6A1A707D
:101C6000FB68DA787B681A70FB68191D3B6A1B7881
:101C7000013B1A4638680AF02CFCFB7A1A46002110
:101C8000F8680AF0A7FB012318461837BD4680BD47
:101C900080B485B000AFF860B9607A600023184660
:101CA0001437BD465DF8047B704780B584B000AF43
:101CB000F860B9607A607B80FB68BA681A60FB687C
:101CC0007A685A60FB687A881A81FB68BA69DA60B8
:101CD000FB68BA8B1A82FB683A6A5A61FB68BA8C55
:101CE0001A83FB68BA6ADA61FB68452283F8202010
:101CF000FB68402283F82120FB68002283F8222021
:101D0000FB68032283F82320FB68042283F8242045
:101D1000FB68002283F82520FB68002283F8262038
:101D2000FB68192283F82820FB68002283F8292009
:101D3000FB685868FB681B890122194604F020FFE4
:101D400000BF1037BD4680BD80B584B000AF78605D
:101D50000B46FB701346BB70FB7843F04003DBB2CD
:101D60003B73BB787B737B6858687B681B89002258
:101D7000194604F005FF7B68186807F10C010A2377
:101D8000022207F070FC0346FB737B6858687B688F
:101D90001B890122194604F0F3FEFB7B184610371D
:101DA000BD4680BD80B588B002AFF8600B467A6052
:101DB000FB720023BB8200233B82FB7A3B75FB68EE
:101DC0005868FB681B890022194604F0D9FEFB689D
:101DD000186807F1100207F114010A230093022387
:101DE00007F0B7FD0346FB75FB685868FB681B8965
:101DF0000122194604F0C4FE7A7C7B681A70FB7DD0
:101E000018461837BD4680BD80B584B000AF7860F5
:101E100039607B6820330A22396818460AF059FB7A
:101E20003B681B781A4600217868FFF78DFF034650
:101E3000FB73FB7B002B76D13B6801331B781A4682
:101E400001217868FFF780FF0346FB73FB7B002BC3
:101E50006BD13B6802331B781A4602217868FFF782
:101E600073FF0346FB73FB7B002B60D13B6803339E
:101E70001B781A4603217868FFF766FF0346FB7359
:101E8000FB7B002B55D13B6804331B781A46042199
:101E90007868FFF759FF0346FB73FB7B002B4AD1A1
:101EA0003B6805331B781A4605217868FFF74CFF1D
:101EB0000346FB73FB7B002B3FD13B6806331B784B
:101EC0001A4606217868FFF73FFF0346FB73FB7B4A
:101ED000002B34D13B6807331B781A4607217868FA
:101EE000FFF732FF0346FB73FB7B002B29D13B68D6
:101EF00008331B781A4608217868FFF725FF034648
:101F0000FB73FB7B002B1ED13B6809331B781A4601
:101F100009217868FFF718FF0346FB73FB7B002B52
:101F200013D1002313E000BF10E000BF0EE000BF9C
:101F30000CE000BF0AE000BF08E000BF06E000BF01
:101F400004E000BF02E000BF00E000BFFB7B1846DA
:101F50001037BD4680BD80B582B000AF78607B6829
:101F600058697B681B8B0122194604F009FE012089
:101F700002F042FB7B6858697B681B8B0022194684
:101F800004F0FEFD7B68203319467868FFF73CFFBC
:101F900000BF0837BD4680BD80B586B002AF78600F
:101FA00039603A6807217868FFF7FCFE0346FB7347
:101FB0003B681B78002B39D03B681B7803F0040387
:101FC000002B07D01F4B4FF480721F491F480AF0A7
:101FD00099F825E03B681B7803F00203002B07D03B
:101FE0001B4B4FF48272184918480AF08BF817E01F
:101FF0003B681B7803F00103002B07D0154B4FF40F
:102000008472114911480AF07DF809E03B681B7899
:102010000093114B40F20B120B4910480AF072F872
:10202000072207217868FFF78FFE06E00C4B4FF47C
:10203000887205490B480AF065F8FB7B1846103793
:10204000BD4680BDA0E40008C8E40008E0E4000844
:10205000F4E4000810E5000860E5000870E50008F9
:1020600088E500089CE5000880B582B000AF786084
:102070000B46FB707B6893F82220FB781343DBB29E
:102080001A4602217868FFF75FFE034618460837B4
:10209000BD4680BD80B582B000AF78607B6893F8A4
:1020A000223043F04003DBB21A4602217868FFF782
:1020B0004BFE034618460837BD4680BD80B582B04A
:1020C00000AF78607B68D8687B681B8A012219465C
:1020D00004F056FD012002F08FFA00BF0837BD461C
:1020E00080BD80B582B000AF78607B68D8687B68BF
:1020F0001B8A0022194604F043FD00BF0837BD4685
:1021000080BD80B584B000AFF860B9607A607B8034
:10211000FB68BA681A60FB687A685A60FB687A885C
:102120001A81FB68BA69DA60FB68BA8B1A82FB68AD
:102130003A6A5A61FB685868FB681B890122194694
:1021400004F01EFD00BF1037BD4680BD80B584B0D1
:1021500000AF78600B46FB701346BB70FB7843F012
:102160004003DBB23B73BB787B737B6858687B684A
:102170001B890022194604F003FD7B68186807F1EB
:102180000C010A23022207F06EFA0346FB737B68F8
:1021900058687B681B890122194604F0F1FCFB7B1F
:1021A00018461037BD4680BD80B588B002AFF860D4
:1021B0000B467A60FB72FB7A3B75FF237B75FB68ED
:1021C0005868FB681B890022194604F0D9FCFB689B
:1021D000186807F1100207F114010A230093022383
:1021E00007F0B7FB0346FB757A7C7B681A70FB68C7
:1021F0005868FB681B890122194604F0C1FCFB7D6D
:1022000018461837BD4680BD80B586B000AF7860EF
:1022100039607B6818330A22396818460AF059F980
:10222000C0233B7307F10C0301330A2239681846B7
:102230000AF04FF97B6858687B681B8900221946B1
:1022400004F09EFC7B68186807F10C0114230B2234
:1022500007F009FA0346FB757B6858687B681B89A1
:102260000122194604F08CFCFB7D18461837BD4648
:1022700080BD80B586B000AFF860084611461A46AA
:1022800003467B810B463B811346FB80C4233B7492
:102290007B891B0A9BB2DBB27B747B89DBB2BB748C
:1022A0003B891B0A9BB2DBB2FB743B89DBB23B75FB
:1022B000FB881B0A9BB2DBB27B75FB88DBB2BB756C
:1022C000FB685868FB681B890022194604F058FC1B
:1022D000FB68186807F110010A23072207F0C3F909
:1022E0000346FB75FB685868FB681B890122194689
:1022F00004F046FCFB7D18461837BD4680BD80B50E
:1023000082B000AF78607B68D8687B681B8A012246
:10231000194604F035FC012002F06EF900BF0837C1
:10232000BD4680BD80B582B000AF78607B68D8685C
:102330007B681B8A0022194604F022FC00BF083784
:10234000BD4680BD80B584B000AF786007F10E0354
:102350001A4602217868FFF727FF0346FB73BB7B11
:1023600003F00403002B05D0124BB022124913488E
:1023700009F0C8FEBB7B03F00203002B05D0104B15
:10238000B4220D490D4809F0BDFEBB7B03F00103EB
:10239000002B05D00B4BB82207490B4809F0B2FEC1
:1023A0001F2203217868FFF7D1FEFB7B1846103708
:1023B000BD4680BDB0E50008D0E50008E8E50008AE
:1023C000FCE500081CE6000840E6000880B584B083
:1023D00000AF786040233B737B681B7E43F00103B2
:1023E000DBB27B737B6858687B681B8900221946C7
:1023F00004F0C6FB7B68186807F10C010A2302226F
:1024000007F031F90346FB737B6858687B681B89CA
:102410000122194604F0B4FBFB7B18461037BD4679
:1024200080BD000080B5AEB002AF786007F15C03FC
:1024300028220021184609F0CDFF07F13403282295
:102440000021184609F0C6FF902387F85C307B68AE
:1024500058687B681B890022194604F091FB7B6851
:10246000186807F1340207F15C010A23009328235E
:1024700007F06FFA034687F8A0307B6858687B68DE
:102480001B890122194604F07BFB0023C7F8A43006
:1024900057E0D7F8A42013465B0013440133C7F874
:1024A000883007F13402D7F8883013441B781A04B7
:1024B000D7F888300133B0333B4413F87C3C1B021F
:1024C0001343D7F888200232B0323A4412F87C2CF9
:1024D0001343C7F88430D7F8A4300B2B04D1D7F8B6
:1024E0008430C7F8AC3027E0D7F8A4300C2B04D1E7
:1024F000D7F88430C7F8A8301EE0D7F8A43003F02E
:102500000103002B0CD1D7F8A430DA0F13445B1071
:102510009B00B0333B44D7F8842043F8942C0BE065
:10252000D7F8A430DA0F13445B109B00B0333B4460
:10253000D7F8842043F8A82CD7F8A4300133C7F883
:10254000A430D7F8A4300C2BA3DD7B685B7E03F0AE
:10255000C003C02B16D0C02B18DC802B0ED0802BD4
:1025600014DC002B02D0402B04D00FE0022387F8AC
:10257000A33015E00A2387F8A33011E0142387F86D
:10258000A3300DE0282387F8A33009E00A2387F859
:10259000A33097F8A3301946584809F0B3FD00BF9F
:1025A0007B685B6907EE903AB8EE677ADFED546AB4
:1025B000C6EE877AC7ED277AD7F8A820D7F8AC30CF
:1025C000D31A07EE903AF8EE676A97F8A33007EE51
:1025D000903AF8EEE77AB7EE007A37EEC77AC6EEB1
:1025E000877AC7ED267AD7ED276A97ED267AC6EE69
:1025F000877AC7ED257A7B681B7E03F00203002BE8
:1026000024D1002387F8A2301CE097F8A2309B0069
:10261000B0333B4453F8943C07EE903AB8EE677AF7
:1026200097F8A230D7ED257A67EE277A7A680833D3
:102630009B0013440433C3ED007A97F8A2300133B2
:1026400087F8A23097F8A230042BDED97B681B7E76
:1026500003F00203002B4BD07B685B7E03F0380352
:1026600087F89330002387F8A1303DE0FB6907EE3F
:10267000903AB8EE677A97F8A13001339B00B033F7
:102680003B4453F8943C07EE903AF8EE677A77EEC5
:10269000677A97ED257A67EE277AC7ED237A97F860
:1026A000A1309B00B0333B4453F8A82C97F89330EB
:1026B00022FA03F307EE903AB8EE677AD7ED277A5D
:1026C00027EE277A97F8A130D7ED237A77EE277A8D
:1026D0007A6808339B0013440433C3ED007A97F8FB
:1026E000A130013387F8A13097F8A130042BBDD970
:1026F00097F8A0301846B037BD4680BD54E60008B4
:10270000286B6E4E80B483B000AF0346FB80FB881D
:10271000102B02D1074B01221A70FB88082B02D123
:10272000054B01221A7000BF0C37BD465DF8047BD3
:10273000704700BF8D0500208E05002080B584B055
:1027400002AF78600B467B807B681B68144A93421B
:1027500021D1144B01221A707B88D9B2124B0093FD
:10276000124B134A1348FFF737FA4FF480720021D7
:10277000104809F02FFE4FF480720E49786808F077
:102780004EFF7B685B6F1B681A687B685B6F1B681A
:1027900022F004021A6000BF0837BD4680BD00BFAA
:1027A0000038014090060020940700209406002085
:1027B000910600209005002080B586B006AF4FF44A
:1027C000006303934FF0904302934FF480530193BF
:1027D0004FF0904300934FF48073294A29492A48C7
:1027E000FFF7C1F8A02229492948FEF773FB294BBE
:1027F000029320230193284B009320234FF0904213
:1028000026492748FFF77DFC224B0493802303933E
:10281000214B0293402301931F4B009310234FF051
:1028200090421E491F48FFF740FA082304931E4BAD
:102830000393102302931C4B0193202300931A4B04
:10284000402219491948FEF7C3FC042301934FF0B5
:10285000904300930423104A15491648FEF7C1FB24
:10286000154802F0F0FB7F21134803F06BFA034692
:10287000002B02D0114809F0ADFC00BFBD4680BD61
:102880009005002040030020740500206402002011
:102890006C05002000127A00000800483404002073
:1028A000F40400202C05002000040048B40400209B
:1028B000B8020020580500200002002080E6000831
:1028C00080B500AF0B48FFF78AF801224FF4807102
:1028D0004FF0904004F054F90748FFF710FD074807
:1028E000FFF7ECFB0648FEF7AAFC0548FEF7B4FC30
:1028F00000BF80BD74050020F40400202C050020DA
:10290000B404002080B500AF0848FFF780F80848FD
:10291000FFF708FD0748FFF7E4FB00224FF4807142
:102920004FF0904004F02CF900BF80BD74050020EA
:10293000F40400202C0500202DE9F0418EB008AFF2
:102940003B4600221A605A609A60DA601A610023DE
:10295000FB750AE0FB7D3A461A44FB7D1946324876
:10296000FFF722FCFB7D0133FB75FB7D092BF1D9C1
:102970000023BB750AE0BB7D3A461A44BB7D19466D
:102980002A48FFF70FFABB7D0133BB75BB7D092BCE
:10299000F1D93B789C467B789E46BB789846FB787D
:1029A0003A797979B879FC793D7A7E7A06960595F7
:1029B000049403900291019200934346724661464B
:1029C0001B4809F09FFBBB7A9C46FB7A9E463B7BEB
:1029D00098467B7BBA7BF97B387C7C7CBD7CFE7C1B
:1029E0000696059504940390029101920093434644
:1029F000724661460F4809F085FB0F4B1B8819464C
:102A00000E4809F07FFB0E4B1B7819460D4809F064
:102A100079FB0D4B1B7819460C4809F073FB00BF7E
:102A20001837BD46BDE8F081F40400202C050020D5
:102A3000A4E60008E8E60008000000202CE70008F3
:102A4000020000204CE70008030000206CE70008AB
:102A500080B582B000AF2248FFF77DFA214B1B788A
:102A6000002B30D10A23204A00212048FEF79AFA91
:102A70000A231F4A0A211D48FEF794FA1A491D48E5
:102A8000FFF7C2FB1A491648FFF7BEF93A1D0323A8
:102A900014211648FEF786FA3B791A469200134431
:102AA0001A4691001A460B4613449B009AB2124BE9
:102AB0001A807A79114B1A70BA79114B1A70114831
:102AC000FEF7D7FB07E008490A48FFF79DFB0849D6
:102AD0000348FFF799F900BF0837BD4680BD00BF26
:102AE0002C050020980400200C0500206C05002017
:102AF0004C050020F404002000000020020000200B
:102B000003000020B404002080B582B000AF04218F
:102B10004A48FFF7A9FA4A4B00221A704948FFF7C2
:102B200055FC01F05DFD78600AE001F059FD0246B8
:102B30007B68D31A632B03D9434809F04BFB7AE037
:102B40003F4B1B78002BF0D03D4B1B78012B22D143
:102B50003E493A48FFF720FA3C4B1B78002B03D044
:102B60003B4809F037FB66E03648FFF7EBFB35489A
:102B7000FFF758FC334B5B6A364A1360304B002238
:102B80001A70344B1B681846FDF7DEFC02460B46F4
:102B9000314809F0B7FA2948FFF7A3FA012001F0FC
:102BA0002BFD2648FFF78AFA012001F025FD0021C0
:102BB0002248FFF759FA224B00221A702148FFF7EA
:102BC00005FC01F00DFD38600AE001F009FD024648
:102BD0003B68D31A632B03D9204809F0FBFA2AE09B
:102BE000174B1B78002BF0D0154B1B78012B22D1F3
:102BF00016491248FFF7D0F9144B1B78002B03D06D
:102C0000174809F0E7FA16E00E48FFF79BFB0D485E
:102C1000FFF708FC0B4B5B6A124A1360084B00225B
:102C20001A70104B1B681846FDF78EFC02460B46C7
:102C30000D4809F067FA0837BD4680BD2C05002015
:102C40008D050020F40400208CE700089507002083
:102C5000B0E7000898070020D4E7000808E800085B
:102C600030E80008B007002054E8000880B584B0C0
:102C700000AF3F48FFF735FA012001F0BDFC3C48AA
:102C8000FFF71CFA012001F0B7FC4FF4966341F600
:102C9000D0424FF6FF713748FFF7EBFA3448FFF7A1
:102CA000F9F9354B00221A703248FFF78FFB01F01B
:102CB00097FCF8600AE001F093FC0246FB68D31A27
:102CC000632B03D92D4809F085FA03E02A4B1B78C2
:102CD000002BF0D0284B1B78012B44D12548FFF75F
:102CE00031FB2448FFF79EFB224B5B6ABB60214B04
:102CF00093ED0A7A1F4BD3ED097A77EE677A9FED51
:102D0000207A37EEC77ADFED1F6AC7EE267AC7ED65
:102D1000017A194B00221A70D7ED027A9FED1A7AC8
:102D200067EE876A97ED017AC6EE877AC7ED007A7B
:102D300097ED007ADFED146AC7EE267AB7EE007AD7
:102D400037EEC77ADFED116AC7EE267A104BC3ED76
:102D5000007A0F4B1B681846FDF7F6FB02460B4640
:102D60000C4809F0CFF900BF1037BD4680BD00BF49
:102D70002C050020F40400208D0500208CE80008BC
:102D800000384747CDCC0C3F00007A4448507C3B8C
:102D9000C8070020B4E8000880B588B000AF002361
:102DA000FB833B1D00221A605A609A60DA601A6148
:102DB0005A61264B7B600623BB600623FB607F23A2
:102DC0003B6104237B610023BB613B1D1946204806
:102DD00002F008FA1E4802F0D3F84FF4FA711C48CA
:102DE00002F064F90346002B05D1194802F0EDF911
:102DF0000346FB8302E0174809F0ECF9144802F09F
:102E000022F9154B1B88BB83BB8B07EE903AF8EE7B
:102E1000676AFB8B07EE903AB8EE677AC6EE877A60
:102E2000B0EE087A67EE877A0C4BC3ED007A0B4B55
:102E30001B681846FDF788FB02460B46084809F058
:102E400061F900BF2037BD4680BD00BF0100008092
:102E500000020020F0E80008AA75FF1F040000200F
:102E60000CE900082DE9B04F8CB008AF634B1B781C
:102E7000002B40F0BD80624BD3ED007A9FED617A6C
:102E800067EE877A9FED607A77EE877AC7ED037AEF
:102E90005E4B93ED007A5E4BD3ED007A77EE677A66
:102EA000C7ED027A97ED027AD7ED037A27EE277AFB
:102EB000D7ED037A67EE277ADFED566A87EEA67ABA
:102EC000DFED556AC7EE267A544BC3ED007A534BBB
:102ED000D3ED007A9FED527A67EE877A9FED517AB3
:102EE00067EE877A9FED507A67EE877A9FED4E7A8C
:102EF00027EE877AF1EE006AC7EE267A4B4BC3EDD8
:102F0000007A4B4B1B8807EE903AF8EEE77ADFED3C
:102F1000496A87EEA67A454BD3ED007A27EE277AE9
:102F2000454BD3ED007A77EE277A434BC3ED007A19
:102F3000414BD3ED007AFCEEE77A17EE902A3F4B37
:102F40001B6813443D4A13603B4B93ED007A3A4BA8
:102F5000D3ED007AFCEEE77AF8EE677A77EE677ADF
:102F6000354BC3ED007A354B1B689AB2344B1A804F
:102F7000324B1B6807EE903AF8EE677A314BC3ED9F
:102F8000007AB868FDF7E0FAC7E90001F868FDF7D4
:102F9000DBFA04460D46214B1B681846FDF7D4FAB0
:102FA00080468946214B1B681846FDF7CDFA8246BC
:102FB0008B46224B1B6807EE903AB8EE677A1E4BA1
:102FC000D3ED007A77EE277A17EE900AFDF7BCFA78
:102FD00002460B46CDE90623CDE904ABCDE90289D3
:102FE000CDE90045D7E90023174809F08BF800E048
:102FF00000BF1037BD46BDE8B08F00BF9507002069
:10300000C8070020C139A1406A4CAF44B007002076
:10301000980700208FC2F53D286B6E4ECC0700202C
:103020002A57F140DB0F494090C2F53DD007002000
:103030000000002000007A44E0070020DC070020A8
:10304000D4070020D807002024E9000880B500AF8D
:103050001A4BD3ED007A9FED1A7AF4EEC77AF1EEAF
:1030600010FA04DD00211748FEF73BFC03E00121C4
:103070001448FEF736FC00211248FEF753FC124BB1
:103080001B78002B11D1114B1B6807EE903AB8EE5C
:10309000677A0F4BD3ED007A77EE277A0221B0EEF4
:1030A000670A0848FEF718F905E0074B1B78194630
:1030B0000448FEF70FFB00BF80BD00BF04000020E6
:1030C00033335340B404002095070020DC07002070
:1030D000E007002080B586B000AF00224349444895
:1030E00005F0FBFE00224349414805F0D9FF424B61
:1030F0001B88B3F5DB6F53D93F4B00221A800123A5
:103100003E4A17213E48FDF74DFF03461A463B4B0A
:103110001A703A4B1B789A083A49A1FB021292089E
:10312000B42101FB02F29B1ADAB2344B1A702F4B16
:103130001B783B722D4B5B787B722E4B9B78BB725E
:103140002C4B5B78FB722B4BDB783B732E4B1B8835
:10315000A7F80D302D4B1B68C7F80F3007F1080397
:103160000B211846FEF77CFC0346FB80FB88A7F882
:103170001330224B1B781A4652001A449200134413
:103180009BB2193399B207F108020D231C48FDF7D1
:10319000B5FE1A4B1B780133DAB2184B1A7007E0F0
:1031A000154B1A881A4B1B8813449AB2124B1A807B
:1031B0000E4B1A78174B1B789A4213D00B4B1A7888
:1031C000144B1A70094B1B7803F00303DBB2002B7E
:1031D00008D10A4B1B780133DAB2084B1A700A4B3C
:1031E00000221A8000BF1837BD4680BD9C04002015
:1031F00010040020B00400208A0500208C05002067
:103200006C050020176CC116D4070020DC070020D5
:10321000000000200800002080B584B000AF3B46CD
:1032200000221A605A609A601A730023FB8112E030
:10323000FB89183399B23A460D230C48FDF7B2FECC
:103240003B460D211846FEF749FC0A2001F0D4F94F
:10325000FB890D33FB81FB8940F623129342E7D9AA
:1032600000BF00BF1037BD4680BD00BF6C05002009
:1032700080B500AF1D4B1B7D1A461D4B1A801B4BA2
:103280005A7D1C4B1A70194B9A7D1B4B1A70174BA9
:10329000DA7D1A4B9A70154B1A7E184B5A70134BE5
:1032A0005A7E164BDA70114B9A7E154B1A700F4BE3
:1032B000DA7E134B5A700D4B1A7F114B9A70002215
:1032C0000E49104805F065FE00220D490D4805F035
:1032D00067FD06490C48FEF797FF0C490C48FEF7BE
:1032E00093FDFFF729FB00BF80BD00BF94060020BF
:1032F000000000200200002003000020B004002095
:103300009C04002010040020F40400209E060020ED
:103310002C05002080B586B000AF1B4BDA7D1B4B1F
:103320009A70194B1A7E194B5A70174B5A7E174BCD
:10333000DA70154B9A7E164B1A70134BDA7E144BCB
:103340005A70114B1A7F124B9A7000220F49114884
:1033500005F01FFE00220E490E4805F021FD17233F
:10336000094A00210C48FDF7C9FD3A461723002100
:103370000948FDF717FE3B4617211846FEF7AEFB3E
:1033800000BF1837BD4680BD94060020B004002061
:103390009C040020100400206C05002080B584B03F
:1033A00000AF0023FB7307F10F02012318212B4804
:1033B000FDF7F8FD3B4600221A605A609A601A73C6
:1033C000FB7B1A4652001A44920013449BB21933F5
:1033D00099B23A460D232148FDF7E4FD0022204929
:1033E000204805F07AFD00221F491E4805F058FECE
:1033F0001D4B9A78BB789A421ED11B4B5A78FB78AA
:103400009A4219D1184BDA783B799A4214D1144B6D
:103410001B789B08DAB23B789B08DBB29A420BD14F
:10342000FA7B124B1A70124B1B88A7F80530114B10
:103430001B68C7F807300CE0FB7B5A1CD2B2FA734A
:103440000A4A13700B4B1B68C7F80730FFF742FEA0
:1034500000BF00BF1037BD4680BD00BF6C05002017
:103460009C04002010040020B00400208C050020E3
:10347000D4070020DC070020B0B5A8B004AF01F0ED
:1034800046F800F0F5F900F0D1FB00F0B1FB00F0D8
:1034900047FA00F06FFB00F015FB00F043FB00F073
:1034A000A3FA00F0E1FAFFF787F94FF4807272494E
:1034B000724808F0B4F8714B5B6F1B681A686F4B69
:1034C0005B6F1B6822F004021A60012204214FF096
:1034D000904003F055FB6A4B07F16C040FCB07C417
:1034E000237007F16C031846FCF7C2FE03469AB23C
:1034F00007F16C016423634806F039FE624A07F164
:10350000600307CA83E8070007F160031846FCF769
:10351000AFFE03469AB207F160016423594806F0F2
:1035200026FE5A4B00221A70FFF738FF0023C7F817
:103530008C300023C7F888300023C7F8843000237C
:10354000FB650023C7F880300023FB670022504949
:10355000504805F0C2FC00224F494E4805F0A0FD3E
:103560004B4B1B7818464A4B5B781C46484B9B7864
:103570001D46494B9B781A46474B5B781946464B8C
:10358000DB780293019100922B4622460146434884
:1035900008F0B8FDFFF794F9FFF75AFAFFF7B4FA0D
:1035A000FFF764FBFFF75EFCFFF7F6FBFFF74EFD4E
:1035B000FFF790FD01F014F8C7F88800D7F88820CD
:1035C000D7F88C30D31AFB65354B1B78002B7DD098
:1035D000334B00221A70334B1B78013B042B65D808
:1035E00001A252F823F000BFFD350008153600088F
:1035F0002F3600084936000861360008062387F890
:10360000583007F1580301211846FEF767FAFFF713
:1036100003FE5BE0062387F8543007F154030121D1
:103620001846FEF75BFA204B01221A704EE0062383
:1036300087F8503007F1500301211846FEF74EFA83
:10364000194B00221A7041E0FFF712FE062387F89B
:103650004C3007F14C0301211846FEF73FFA35E0E4
:10366000FFF758FE062387F8483007F14803012189
:103670001846FEF733FA29E09005002040030020A9
:1036800010EA0008B802002020EA00089804002090
:103690009C04002010040020B004002098E90008D9
:1036A0009006002091060020880500200A2000F0E6
:1036B000A3FF5E4B1B781A463B465D49184608F04F
:1036C00091FD3B460B211846FEF708FA594B1B7833
:1036D000002B1BD007F1340300221A605A609A6055
:1036E000DA601A61544B1B687B63544B1B68BB63E5
:1036F000534B1B68FB63534B1B683B64FB6D7B6444
:1037000007F1340314211846FEF7E8F9FFF7FAF839
:1037100000F066FFC7F88400D7F88420D7F88C3013
:10372000D31AC7F88030D7F88010474808F0EAFC71
:10373000464B1B881946464808F0E4FC434B1B885F
:103740001A46D7F88030934268D2424805F05AFEB4
:10375000414B1F229A613F4B1B68DB68DAB23D4B3D
:103760001B6862F49062DA6000F03AFF0246D7F814
:103770008C30D31AC7F88030344B1B881A46D7F8E0
:103780008030D31A07EE903AB8EE677ADFED336AED
:10379000C7EE267AFCEEE77A17EE903AFB67002236
:1037A000F96F2C4805F09AFD2B4B1F229A6100F00F
:1037B00047FF01214FF4804004F046F800F058F82C
:1037C00000F04EFF264801F0B3FA254801F06EF9EB
:1037D0007F21234802F0B6FA224806F08BFC2148EC
:1037E00006F03AFC4FF480721F491E4807F017FF9D
:1037F0001C4B5B6F1B681A681A4B5B6F1B6822F0CF
:1038000004021A60144B1F229A61124B1B68DB687A
:10381000DAB2104B1B6862F49062DA6000F0E0FEEE
:10382000C7F88C00114B01221A708FE69106002018
:10383000C8E9000888050020D0070020C80700203C
:1038400098070020B0070020D8E9000800000020F9
:10385000F0E90008100400200070004023DBF93E6E
:103860000002002040030020900500209804002062
:1038700080B596B000AF07F114034422002118462A
:1038800008F0A8FD3B4600221A605A609A60DA6090
:103890001A614FF4007003F0FDFF0346002B01D0C6
:1038A00000F078FA03F0C0FF1C4BD3F890301B4AAD
:1038B00023F01803C2F890301C237B610123FB61C5
:1038C0000123BB620123FB6200233B6380237B63F4
:1038D0000023FB6307F11403184604F087F803463E
:1038E000002B01D000F056FA0F233B6000237B60D1
:1038F0000023BB600023FB6000233B613B460021AB
:10390000184604F087FC0346002B01D000F042FA71
:1039100005F0BCF800BF5837BD4680BD001002401E
:1039200080B586B000AF3B4600221A605A609A60AC
:10393000DA601A615A61294B294A1A60274B002222
:103940005A60264B00229A60244B0022DA60234BF7
:1039500000221A61214B04225A61204B00221A7660
:103960001E4B00225A761D4B0122DA611B4B0022AE
:1039700083F82020194B00229A62184B0022DA6249
:10398000164B002283F83020144B00225A63134B4D
:10399000002283F83820114801F088F80346002BF4
:1039A00001D000F0F7F90F4B3B6006237B60062344
:1039B000BB607F23FB6004233B6100237B613B46AC
:1039C0001946064801F00EFC0346002B01D000F01A
:1039D000E1F900BF1837BD4680BD00BF00020020DE
:1039E000000004500100008080B500AF1B4B1C4A52
:1039F0001A601A4B1B4A5A60184B00229A60174BE8
:103A00000122DA60154B00221A61144B00225A6120
:103A1000124B00229A61114B0022DA610F4B0022F7
:103A20001A620E4803F0DCF80346002B01D000F0C8
:103A3000B1F90021094803F05FFE0346002B01D0D5
:103A400000F0A8F90021054803F0A1FE0346002B71
:103A500001D000F09FF900BF80BD00BF64020020CC
:103A600000580040583D500080B500AF124B134A3B
:103A70001A60114B124A5A600F4B4FF080529A60F5
:103A80000D4B0022DA600C4B00221A610A4B0C220B
:103A90005A61094B00229A61074B00221A62064BB9
:103AA00000225A62044806F0D7FA0346002B01D0E0
:103AB00000F070F900BF80BDB80200200080004017
:103AC0002433030080B500AF144B154A1A60134B22
:103AD0004FF4E1325A60114B00229A600F4B0022E2
:103AE000DA600E4B00221A610C4B0C225A610B4B10
:103AF00000229A61094B0022DA61084B00221A6207
:103B0000064B00225A62054806F0A6FA0346002B2F
:103B100001D000F03FF900BF80BD00BF400300208E
:103B20000038014080B500AF104B114A1A600F4BAE
:103B300000225A600D4B7F229A600C4BFF22DA6004
:103B40000A4B00221A61094B00225A61074B0022DE
:103B50009A61064B0022DA61044805F099F80346A1
:103B6000002B01D000F016F900BF80BD100400202A
:103B70000028004080B500AF1B4B1C4A1A601A4B4E
:103B80004FF482725A60184B00229A60164B4FF421
:103B9000E062DA60144B00221A61134B00225A6172
:103BA000114B4FF400729A610F4B0022DA610E4BF9
:103BB00000221A620C4B00225A620B4B00229A62BE
:103BC000094B0722DA62084B00221A63064B0822CF
:103BD0005A63054805F0A4FC0346002B01D000F011
:103BE000D9F800BF80BD00BF340400200030014080
:103BF00080B582B000AF0C4B9B6C0B4A43F00103C5
:103C00009364094B9B6C03F001037B607B6800228B
:103C100000210F2002F0F5F90F2002F00EFA00BF8C
:103C20000837BD4680BD00BF0010024080B588B097
:103C300000AF07F10C0300221A605A609A60DA6044
:103C40001A61504BDB6C4F4A43F00403D3644D4B75
:103C5000DB6C03F00403BB60BB684A4BDB6C494A76
:103C600043F00103D364474BDB6C03F001037B603B
:103C70007B68444BDB6C434A43F00203D364414B03
:103C8000DB6C03F002033B603B680022E4213E480A
:103C900002F076FF002241F204114FF0904002F052
:103CA0006FFF01224FF403614FF0904002F068FF74
:103CB00000223821354802F063FF012240213348B9
:103CC00002F05EFFE423FB6001233B6100237B6184
:103CD0000023BB6107F10C0319462B4802F0FCFCE2
:103CE0000823FB604FF488133B6100237B6107F1DD
:103CF0000C031946244802F0EFFC41F63413FB6034
:103D000001233B6100237B610023BB6107F10C03AE
:103D100019464FF0904002F0DFFC1023FB604FF497
:103D200004133B6101237B6107F10C03194616481C
:103D300002F0D2FC7823FB6001233B6100237B610E
:103D40000023BB6107F10C031946104802F0C4FCC4
:103D50000F4B5B680E4A43F480335360002200210E
:103D6000092002F04EF9092002F067F90022002133
:103D70000A2002F046F90A2002F05FF900BF20375E
:103D8000BD4680BD00100240000800480004004805
:103D90000000014080B400AF72B600BF00BFFDE775
:103DA00080B483B000AF0F4B1B6E0E4A43F001038B
:103DB00013660C4B1B6E03F001037B607B68094BA1
:103DC0009B6D084A43F080539365064B9B6D03F04F
:103DD00080533B603B6800BF0C37BD465DF8047BF9
:103DE000704700BF0010024080B59AB000AF786005
:103DF00007F10C035C220021184608F0EBFA7B68FF
:103E00001B68194A93422AD14FF48043FB604FF05C
:103E10008053FB6501233B6101237B610823BB6168
:103E20000723FB6102233B6202237B624FF0807316
:103E3000BB6207F10C03184604F010FC0346002B8C
:103E400001D0FFF7A7FF094BDB6C084A43F400538E
:103E5000D364064BDB6C03F40053BB60BB6800BF4C
:103E60006837BD4680BD00BF00000450001002400E
:103E700080B483B000AF78607B681B68074A9342C8
:103E800005D1074BDB6C064A23F40053D36400BF13
:103E90000C37BD465DF8047B704700BF000004503E
:103EA0000010024080B5A0B000AF786007F16C034D
:103EB00000221A605A609A60DA601A6107F11003F2
:103EC0005C220021184608F085FA7B681B681F4AAF
:103ED000934236D180233B6100237B6407F11003BA
:103EE000184604F0BBFB0346002B01D0FFF752FF3E
:103EF000174BDB6C164A43F00203D364144BDB6CA4
:103F000003F00203FB60FB684FF4C043FB6612231F
:103F10003B6700237B670323BB670423FB6707F131
:103F20006C0319460B4802F0D7FB094B9B6D084AFE
:103F300043F480039365064B9B6D03F48003BB60E1
:103F4000BB6800BF8037BD4680BD00BF0058004041
:103F5000001002400004004880B5A2B000AF7860B5
:103F600007F1740300221A605A609A60DA601A61DD
:103F700007F118035C220021184608F02BFA7B6831
:103F80001B685C4A934240D12023BB6100237B64C1
:103F900007F11803184604F061FB0346002B01D01B
:103FA000FFF7F8FE544BDB6D534A43F00103D36532
:103FB000514BDB6D03F001037B617B694E4BDB6C86
:103FC0004D4A43F00403D3644B4BDB6C03F0040312
:103FD0003B613B6903237B670223BB670023FB67CD
:103FE0000323C7F880300823C7F8843007F174032F
:103FF0001946424802F070FB00220021462002F0E0
:1040000000F8462002F019F870E07B681B683C4A13
:1040100093426BD10123BB610023BB6307F11803FB
:10402000184604F01BFB0346002B01D0FFF7B2FE3D
:10403000314B1B6E304A43F4804313662E4B1B6E8C
:1040400003F48043FB60FB682B4BDB6C2A4A43F094
:104050000103D364284BDB6C03F00103BB60BB6836
:104060004FF4C0637B670223BB670023FB67032316
:10407000C7F880300723C7F8843007F17403194666
:104080004FF0904002F028FB1E4B1F4A1A601D4B58
:1040900002225A601B4B00229A601A4B0022DA60FF
:1040A000184B80221A61174B00225A61154B0022CF
:1040B0009A61144B0022DA61124B4FF400521A62DB
:1040C000104801F0E3FF0346002B01D0FFF762FE2A
:1040D0007B680C4A5A670B4A7B6893620022002176
:1040E000252001F08EFF252001F0A7FF00BF8837B3
:1040F000BD4680BD0080004000100240000800481E
:1041000000380140C80300205800024080B582B04A
:1041100000AF78607B681B68164A93420DD1164B3E
:10412000DB6D154A23F00103D3650321134802F028
:104130004DFC462001F08FFF18E07B681B68104A99
:10414000934213D10C4B1B6E0B4A23F4804313662E
:104150004FF4C0614FF0904002F038FC7B685B6F19
:10416000184602F04BF8252001F075FF00BF083714
:10417000BD4680BD0080004000100240000800489D
:104180000038014080B59AB000AF786007F10C03A9
:104190005C220021184608F01DF97B681B68134A51
:1041A00093421FD14FF40033FB604FF400737B66E2
:1041B00007F10C03184604F051FA0346002B01D016
:1041C000FFF7E8FD0A4BD3F89030094A43F4004367
:1041D000C2F8903000220021032001F012FF0320DA
:1041E00001F02BFF00BF6837BD4680BD00280040AE
:1041F0000010024080B58AB000AF786007F1140368
:1042000000221A605A609A60DA601A617B681B6843
:10421000174A934228D1174B1B6E164A43F480531A
:104220001366144B1B6E03F480533B613B69114BC7
:10423000DB6C104A43F00103D3640E4BDB6C03F0DC
:104240000103FB60FB68C2237B610223BB61002387
:10425000FB6103233B6205237B6207F114031946CC
:104260004FF0904002F038FA00BF2837BD4680BDBD
:10427000003001400010024080B400AF00BFFDE7F5
:1042800080B400AF00BFFDE780B400AF00BFFDE722
:1042900080B400AF00BFFDE780B400AF00BFFDE712
:1042A00080B400AF00BFBD465DF8047B704780B4AA
:1042B00000AF00BFBD465DF8047B704780B400AF1F
:1042C00000BFBD465DF8047B704780B500AF00F0CD
:1042D00073F900BF80BD000080B500AF024805F053
:1042E000EFF800BF80BD00BF1004002080B500AF14
:1042F000082002F05DFC00BF80BD80B500AF10203B
:1043000002F056FC00BF80BD80B500AF024802F04D
:10431000EDF800BF80BD00BFC803002080B500AF2E
:10432000024805F0B7FF00BF80BD00BF400300207A
:1043300080B500AF024805F0ADFF00BF80BD00BFF3
:10434000B802002080B400AF01231846BD465DF8D6
:10435000047B704780B582B000AF7860396008F0A8
:104360008BF8034616221A604FF0FF3318460837C1
:10437000BD4680BD80B582B000AF78604FF0FF31A0
:104380007868FFF7E7FF00BFFDE780B586B000AFB4
:10439000F860B9607A6000237B610AE0AFF30080C7
:1043A0000146BB685A1CBA60CAB21A707B690133F5
:1043B0007B617A697B689A42F0DB7B681846183724
:1043C000BD4680BD80B483B000AF78604FF0FF334E
:1043D00018460C37BD465DF8047B704780B483B047
:1043E00000AF786039603B684FF400525A60002398
:1043F00018460C37BD465DF8047B704780B483B027
:1044000000AF7860012318460C37BD465DF8047B89
:10441000704780B485B000AFF860B9607A6000235F
:1044200018461437BD465DF8047B704780B586B0EA
:1044300000AF7860144A154BD31A7B617B693B61EE
:10444000134B1B68002B02D1114B124A1A60104B00
:104450001A687B6813443A699A4207D208F00CF84C
:1044600003460C221A604FF0FF3309E0084B1B682B
:10447000FB60074B1A687B681344054A1360FB68AE
:1044800018461837BD4680BD00C00020000400005B
:10449000E40700203809002080B400AF064BD3F8B1
:1044A0008830054A43F47003C2F8883000BFBD4627
:1044B0005DF8047B704700BF00ED00E0DFF834D00A
:1044C000FFF7EAFF0C480D490D4A002302E0D458DB
:1044D000C4500433C4188C42F9D30A4A0A4C00234E
:1044E00001E013600432A242FBD307F0CBFFFEF7DA
:1044F000C3FFFEE700C0002000000020E001002014
:10450000FCED0008E001002038090020FEE780B53E
:1045100082B000AF0023FB71032001F067FD0F2084
:1045200000F00EF80346002B02D00123FB7101E0DE
:10453000FFF736FCFB7918460837BD4680BD000002
:1045400080B584B000AF78600023FB73174B1B78F5
:10455000002B23D0164B1A68144B1B7819464FF4C6
:104560007A73B3FBF1F3B2FBF3F3184601F081FD6C
:104570000346002B0FD17B680F2B09D800227968E6
:104580004FF0FF3001F03DFD0A4A7B68136007E001
:104590000123FB7304E00123FB7301E00123FB73A0
:1045A000FB7B18461037BD4680BD00BF14000020BD
:1045B0000C0000201000002080B400AF064B1B78D8
:1045C0001A46064B1B681344044A136000BFBD46DD
:1045D0005DF8047B704700BF14000020E80700204E
:1045E00080B400AF034B1B681846BD465DF8047BE2
:1045F000704700BFE807002080B584B000AF786046
:10460000FFF7EEFFB8607B68FB60FB68B3F1FF3F2C
:1046100005D00A4B1B781A46FB681344FB6000BFA9
:10462000FFF7DEFF0246BB68D31AFA689A42F7D852
:1046300000BF00BF1037BD4680BD00BF1400002082
:1046400080B400AF054B1B68044A23F002031360DB
:1046500000BFBD465DF8047B704700BF10E000E07E
:1046600080B400AF054B1B68044A43F0020313609B
:1046700000BFBD465DF8047B704700BF10E000E05E
:1046800080B483B000AF786039607B689B6823F4A6
:104690007C123B681A437B689A6000BF0C37BD46AA
:1046A0005DF8047B704780B483B000AF78603960F8
:1046B0007B689B6823F0E0723B681A437B689A60D2
:1046C00000BF0C37BD465DF8047B704780B483B0F3
:1046D00000AF78607B689B6803F0E07318460C3786
:1046E000BD465DF8047B704780B487B000AFF860CA
:1046F000B9607A603B60FB6860331A46BB689B0018
:1047000013447B617B691A68084B13407A6802F096
:10471000F8413A680A43134343F000427B691A6048
:1047200000BF1C37BD465DF8047B704700F0FF03F7
:1047300080B485B000AF786039607B6860331A461A
:104740003B689B001344FB60FB681B6803F0F84365
:1047500018461437BD465DF8047B704780B487B0B7
:1047600000AFF860B9607A60FB6860331A46BB68D6
:104770009B0013447B617B691B6823F000427B68CC
:104780001A437B691A6000BF1C37BD465DF8047B85
:10479000704780B483B000AF78607B68DB6803F457
:1047A0004063002B01D1012300E0002318460C37A1
:1047B000BD465DF8047B704780B487B000AFF860F9
:1047C000B9607A60FB6830331A46BB681B0A9B00ED
:1047D00003F00C0313447B617B691A68BB6803F028
:1047E0001F031F2101FA03F3DB431A407B689B0E72
:1047F00003F01F01BB6803F01F0301FA03F31A4320
:104800007B691A6000BF1C37BD465DF8047B7047AA
:1048100080B487B000AFF860B9607A60FB68143389
:104820001A46BB685B0E9B0003F0040313447B61D4
:104830007B691A68BB681B0D03F01F03072101FA8F
:1048400003F3DB431A40BB681B0D03F01F037968B9
:1048500001FA03F31A437B691A6000BF1C37BD4697
:104860005DF8047B7047000080B485B000AFF8604D
:10487000B9607A60FB68D3F8B020BB68C3F3120359
:10488000DB431A407B6803F018030849D940BB6832
:104890000B40C3F312031A43FB68C3F8B02000BFF8
:1048A0001437BD465DF8047B704700BFFFFF07006B
:1048B00080B483B000AF78607B689B6823F02043AE
:1048C00023F03F037A68936000BF0C37BD465DF864
:1048D000047B704780B483B000AF78607B689B68CE
:1048E00003F00053B3F1005F01D1012300E0002386
:1048F00018460C37BD465DF8047B704780B483B022
:1049000000AF78607B689B6823F0104323F03F037F
:1049100043F080527B689A6000BF0C37BD465DF85B
:10492000047B704780B483B000AF78607B689B687D
:1049300003F08053B3F1805F01D1012300E0002335
:1049400018460C37BD465DF8047B704780B483B0D1
:1049500000AF78607B689B6823F0004323F03F033F
:1049600043F001027B689A6000BF0C37BD465DF8DA
:10497000047B704780B483B000AF78607B689B682D
:1049800023F0004323F03F0343F002027B689A6068
:1049900000BF0C37BD465DF8047B704780B483B020
:1049A00000AF78607B689B6803F00103012B01D1A5
:1049B000012300E0002318460C37BD465DF8047B58
:1049C000704780B483B000AF78607B689B6803F069
:1049D0000203022B01D1012300E0002318460C370B
:1049E000BD465DF8047B704780B483B000AF78604B
:1049F0007B689B6823F0004323F03F0343F00402ED
:104A00007B689A6000BF0C37BD465DF8047B704739
:104A100080B483B000AF78607B689B6823F000436C
:104A200023F03F0343F010027B689A6000BF0C370D
:104A3000BD465DF8047B704780B483B000AF7860FA
:104A40007B689B6803F00403042B01D1012300E081
:104A5000002318460C37BD465DF8047B704780B4D0
:104A600083B000AF78607B689B6823F0004323F03D
:104A70003F0343F020027B689A6000BF0C37BD46BD
:104A80005DF8047B704780B483B000AF78607B68CA
:104A90009B6803F00803082B01D1012300E00023E9
:104AA00018460C37BD465DF8047B704780B588B06A
:104AB00000AF78600023FB770023FB607B68002B4E
:104AC00001D1012326E17B681B69002B7B685B6DAC
:104AD000002B09D17868FFF787F97B6800229A6577
:104AE0007B68002283F850207B681B681846FFF71C
:104AF000F1FE0346002B04D07B681B681846FFF7C5
:104B0000D7FE7B681B681846FFF70CFF0346002B97
:104B100015D17B681B681846FFF7F0FE7F4B1B68BA
:104B20009B097F4AA2FB03239B0901335B00FB60C7
:104B300002E0FB68013BFB60FB68002BF9D17B685E
:104B40001B681846FFF7EEFE0346002B0DD17B686D
:104B50005B6D43F010027B685A657B689B6D43F088
:104B600001027B689A650123FB777B681B68184606
:104B7000FFF762FF78617B685B6D03F01003002B29
:104B800040F0BF807B69002B40F0BB807B685B6D91
:104B900023F4817343F002027B685A657B681B68CB
:104BA0001846FFF7FBFE0346002B0BD15D48FFF7CD
:104BB000F5FE0346002B05D17B685B6819465A4811
:104BC000FFF75EFD7B685B7E5A037B685B6B1A4375
:104BD0007B68DB681A437B689B681A437B6893F8A1
:104BE00020301B041343BB617B6893F82030012BFA
:104BF00006D17B685B6A013B5B04BA691343BB6106
:104C00007B689B6A002B09D07B689B6A03F47072F7
:104C10007B68DB6A1343BA691343BB617B681B681B
:104C2000DA68424B13407A681268B9690B43D36063
:104C30007B681B681846FFF726FF38617B69002BED
:104C40003DD13B69002B3AD17B681B7E9A037B6880
:104C500093F830305B001343BB617B681B68DB68F3
:104C600023F4804323F002037A681268B9690B4386
:104C7000D3607B6893F83830012B18D17B681B68B0
:104C80001B6923F4FF6323F004037A68D16B7A680D
:104C9000126C11437A68526C11437A68926C0A4321
:104CA0001A437B681B6842F001021A6107E07B68C7
:104CB0001B681A697B681B6822F001021A617B6815
:104CC0001B69012B0CD17B681B681B6B23F00F0148
:104CD0007B68DB695A1E7B681B680A431A6307E01E
:104CE0007B681B681A6B7B681B6822F00F021A63D3
:104CF0007B685B6D23F0030343F001027B685A6518
:104D000007E07B685B6D43F010027B685A65012306
:104D1000FB77FB7F18462037BD4680BD0C00002086
:104D2000632D3E05000004500003045007C0F0FF4F
:104D300080B584B000AF78607B68002B01D101237F
:104D40000EE17B685B6D43F002027B685A650321CC
:104D5000786800F029FE0346FB737B681B68DA68FD
:104D60007B681B6842F40012DA60FB7B002B0AD1DF
:104D7000786800F05BFF0346FB73FB7B002B02D1DE
:104D80007B6801225A657B681B685B687A681268D9
:104D900023F4FF6323F0070353607B681B6840F232
:104DA000FF721A607B681B689A687B681B6822F038
:104DB000A0429A607B681B689A687B681B6842F017
:104DC00000529A607B681B68D9687B681A68664BDA
:104DD0000B40D3607B681B68DA687B681B6842F015
:104DE0000042DA607B681B681B697A68126823F4EA
:104DF000FF6323F0070313617B681B685A697B68B4
:104E00001B6802F040425A617B681B689A697B68A4
:104E10001B6802F078429A617B681B681A6A7B689B
:104E20001B6802F0F0221A627B681B685A6A7B6872
:104E30001B6802F0FF225A627B681B689A6A7B68D3
:104E40001B6802F0FF229A627B681B68196B7B6803
:104E50001A68464B0B4013637B681B68596B7B6871
:104E60001A68434B0B4053637B681B68996B7B68E4
:104E70001A683F4B0B4093637B681B68DB6B7A6857
:104E8000126823F4FB6323F00703D3637B681B687A
:104E9000196E7B681A68374B0B4013667B681B687A
:104EA000596E7B681A68334B0B4053667B681B68EE
:104EB000996E7B681A682F4B0B4093667B681B6862
:104EC000D96E7B681A682B4B0B40D3667B681B68D6
:104ED000D3F8A0307A681268DB0CDB04C2F8A0308B
:104EE0007B681B68D3F8A4307A681268DB0CDB049B
:104EF000C2F8A4307B681B68D3F8B0307A681268B7
:104F0000DB0CDB04C2F8B0307B681B68D3F8B4203C
:104F10007B681B6822F07F12C3F8B4201648FFF7A5
:104F20003DFD0346002B0AD1144B9B68134A23F026
:104F3000FF7323F4803393607868FEF799FF7B68F2
:104F400000229A657B680022DA657B6800221A6677
:104F50007B6800225A657B68002283F85020FB7B27
:104F600018461037BD4680BD04800080300882E0BE
:104F7000200882E000F0FF0300000450000304500A
:104F800080B584B000AF78607B681B681846FFF777
:104F900053FD0346002B4FD17B6893F85030012B13
:104FA00001D102234BE07B68012283F8502078680E
:104FB00000F0B6FD0346FB73FB7B002B37D17B680B
:104FC0005B6D23F4706323F0010343F480727B680C
:104FD0005A657B685B6D03F48053B3F5805F06D13F
:104FE0007B689B6D23F006027B689A6502E07B6814
:104FF00000229A657B681B681C221A607B6800226D
:1050000083F850207B681B68DB6803F00073002B7B
:1050100007D07B685B6D23F4405343F480527B6878
:105020005A657B681B681846FFF7DEFC06E07B6864
:10503000002283F8502001E00223FB73FB7B18461B
:105040001037BD4680BD80B584B000AF78607B6806
:1050500093F85030012B01D1022323E07B68012219
:1050600083F850200321786800F09EFC0346FB7310
:10507000FB7B002B11D1786800F0D8FD0346FB7351
:10508000FB7B002B09D17B685B6D23F4885323F0F5
:10509000010343F001027B685A657B68002283F8B4
:1050A0005020FB7B18461037BD4680BD80B586B0CA
:1050B00000AF786039607B685B69082B02D10823F8
:1050C0007B6110E07B681B68DB6803F00103002B49
:1050D00007D07B685B6D43F020027B685A65012333
:1050E0006FE004237B61FFF77BFA386121E03B68C6
:1050F000B3F1FF3F1DD0FFF773FA02463B69D31AA5
:105100003A689A4202D33B68002B12D17B681B6835
:105110001A687B691340002B0BD17B685B6D43F0F1
:1051200004027B685A657B68002283F850200323C1
:1051300047E07B681B681A687B691340002BD6D058
:105140007B685B6D43F400727B685A657B681B6803
:105150001846FFF71EFB0346002B1CD07B685B7EC6
:10516000002B18D17B681B681B6803F00803082B11
:1051700011D17B685B6D23F480727B685A657B6814
:105180005B6D03F48053002B05D17B685B6D43F0AE
:1051900001027B685A657B681B68DB68FB607B6982
:1051A000082B04D17B681B6808221A6008E0FB68A2
:1051B00003F48043002B03D17B681B680C221A6028
:1051C000002318461837BD4680BD80B483B000AFB9
:1051D00078607B681B681B6C18460C37BD465DF811
:1051E000047B704780B5B6B000AF786039600023AB
:1051F00087F8D7300023BB607B6893F85030012BD1
:1052000001D10223BBE37B68012283F850207B6835
:105210001B681846FFF710FC0346002B40F0A083E4
:105220003B685B68C7F8D0303B685B68052B24D8C7
:105230003B685B68023B032B1BD801A252F823F0AA
:105240005152000859520008615200086952000882
:105250000C23C7F8D03010E01223C7F8D0300CE090
:105260001823C7F8D03008E04FF48073C7F8D03067
:1052700003E00623C7F8D03000BF7B6818683B689E
:105280001B681A46D7F8D010FFF796FA7B681B68A0
:105290001846FFF7D1FBC7F8CC007B681B6818469F
:1052A000FFF7F1FBC7F8C800D7F8CC30002B40F06F
:1052B000A481D7F8C830002B40F09F817B68186824
:1052C0003B6819683B689B681A46FFF7A1FA3B6880
:1052D0005A697B681B68DB68DB0803F003035B002B
:1052E00002FA03F3C7F8C4303B681B69042B0AD0E9
:1052F0007B6818683B6819693B681A68D7F8C4303E
:10530000FFF7F2F979E17B681B6800211846FFF787
:105310000FFA0346C3F31203002B0AD17B681B6804
:1053200000211846FFF704FA03469B0E03F01F0204
:105330001EE07B681B6800211846FFF7F9F9034659
:10534000C7F8B830D7F8B83093FAA3F3C7F8BC3031
:10535000D7F8BC30C7F8B430D7F8B430002B01D13F
:10536000202304E0D7F8B430B3FA83F3DBB21A4653
:105370003B681B68C3F31203002B05D13B681B6815
:105380009B0E03F01F0318E03B681B68C7F8AC30A6
:10539000D7F8AC3093FAA3F3C7F8A830D7F8A83001
:1053A000C7F8B030D7F8B030002B01D1202304E08B
:1053B000D7F8B030B3FA83F3DBB29A4206D17B68F8
:1053C0001B68002200211846FFF7C8F97B681B689C
:1053D00001211846FFF7ACF90346C3F31203002B73
:1053E0000AD17B681B6801211846FFF7A1F9034623
:1053F0009B0E03F01F021EE07B681B68012118460C
:10540000FFF796F90346C7F8A030D7F8A03093FA13
:10541000A3F3C7F89C30D7F89C30C7F8A430D7F86E
:10542000A430002B01D1202304E0D7F8A430B3FA34
:1054300083F3DBB21A463B681B68C3F31203002BED
:1054400005D13B681B689B0E03F01F0318E03B6807
:105450001B68C7F89430D7F8943093FAA3F3C7F8D1
:105460009030D7F89030C7F89830D7F89830002BA4
:1054700001D1202304E0D7F89830B3FA83F3DBB2EC
:105480009A4206D17B681B68002201211846FFF76B
:1054900065F97B681B6802211846FFF749F9034646
:1054A000C3F31203002B0AD17B681B680221184644
:1054B000FFF73EF903469B0E03F01F021EE07B68D8
:1054C0001B6802211846FFF733F90346C7F88830F6
:1054D000D7F8883093FAA3F3C7F88430D7F884302C
:1054E000C7F88C30D7F88C30002B01D1202304E092
:1054F000D7F88C30B3FA83F3DBB21A463B681B68EB
:10550000C3F31203002B05D13B681B689B0E03F00D
:105510001F0314E03B681B68FB67FB6F93FAA3F360
:10552000BB67BB6FC7F88030D7F88030002B01D144
:10553000202304E0D7F88030B3FA83F3DBB29A4239
:1055400006D17B681B68002202211846FFF706F986
:105550007B681B6803211846FFF7EAF80346C3F38C
:105560001203002B0AD17B681B6803211846FFF742
:10557000DFF803469B0E03F01F0217E07B681B68F1
:1055800003211846FFF7D4F803463B673B6F93FAB5
:10559000A3F3FB66FB6E7B677B6F002B01D120239F
:1055A00003E07B6FB3FA83F3DBB21A463B681B68F8
:1055B000C3F31203002B05D13B681B689B0E03F05D
:1055C0001F0311E03B681B687B667B6E93FAA3F3B5
:1055D0003B663B6EBB66BB6E002B01D1202303E014
:1055E000BB6EB3FA83F3DBB29A4206D17B681B68C9
:1055F000002203211846FFF7B1F87B681B681846A4
:10560000FFF7CCF90346002B40F040817B68186817
:105610003B6819683B68DB681A46FFF725F93B6869
:10562000DB688F4A934240F031817B6818683B68A1
:105630001B68C3F31203002B0BD13B681B689B0E46
:10564000013303F01F03092B94BF01230023DBB2B6
:1056500019E03B681B68BB65BB6D93FAA3F37B65E0
:105660007B6DFB65FB6D002B01D1202303E0FB6DFF
:10567000B3FA83F3DBB2013303F01F03092B94BFAA
:1056800001230023DBB2002B79D03B681B68C3F3F6
:105690001203002B07D13B681B689B0E01339B064E
:1056A00003F0F84215E03B681B68FB64FB6C93FA5F
:1056B000A3F3BB64BB6C3B653B6D002B01D1202386
:1056C00003E03B6DB3FA83F3DBB201339B0603F0D7
:1056D000F8423B681B68C3F31203002B09D13B68F7
:1056E0001B689B0E013303F01F03012101FA03F332
:1056F00017E03B681B683B643B6C93FAA3F3FB63C6
:10570000FB6B7B647B6C002B01D1202303E07B6C63
:10571000B3FA83F3DBB2013303F01F03012101FA73
:1057200003F342EA03013B681B68C3F31203002B37
:105730000AD13B681B689B0E013303F01F0213461E
:105740005B0013441B0518E03B681B687B637B6BA5
:1057500093FAA3F33B633B6BBB63BB6B002B01D1A1
:10576000202303E0BB6BB3FA83F3DBB2013303F016
:105770001F0213465B0013441B050B4381E03B688B
:105780001B68C3F31203002B07D13B681B689B0EF9
:1057900001339B0603F0F84215E03B681B68BB62CF
:1057A000BB6A93FAA3F37B627B6AFB62FB6A002B02
:1057B00001D1202303E0FB6AB3FA83F3DBB20133A8
:1057C0009B0603F0F8423B681B68C3F31203002BEF
:1057D00009D13B681B689B0E013303F01F030121B5
:1057E00001FA03F317E03B681B68FB61FB6993FA5E
:1057F000A3F3BB61BB693B623B6A002B01D1202351
:1058000003E03B6AB3FA83F3DBB2013303F01F0317
:10581000012101FA03F342EA03013B681B68C3F369
:105820001203002B0DD13B681B689B0E013303F064
:105830001F0213465B0013441E3B1B0543F000731D
:105840001EE03B681B683B613B6993FAA3F3FB6076
:10585000FB687B617B69002B04D1202306E000BF3D
:1058600000007F407B69B3FA83F3DBB2013303F0BE
:105870001F0213465B0013441E3B1B0543F00073DD
:105880000B433A6892681946FEF7C2FF3B681A68F4
:105890003D4B1340002B6CD03C48FEF717FFC7F878
:1058A000C0003B681B683A4A934227D1D7F8C03002
:1058B00003F40003002B21D17B681B68354A934217
:1058C00057D1D7F8C03043F4000319462F48FEF7EC
:1058D000EAFE314B1B689B09304AA2FB03239B095C
:1058E0005A1C13465B0013449B00BB6002E0BB687C
:1058F000013BBB60BB68002BF9D13AE03B681B68F9
:10590000274A934213D1D7F8C03003F08073002B9D
:105910000DD17B681B681F4A93422AD1D7F8C0304B
:1059200043F0807319461948FEF7BDFE21E03B683D
:105930001B681C4A93421CD1D7F8C03003F4800383
:10594000002B16D17B681B68124A934211D1D7F8FD
:10595000C03043F4800319460C48FEF7A4FE08E06B
:105960007B685B6D43F020027B685A65012387F8F2
:10597000D7307B68002283F8502097F8D73018463C
:10598000D837BD4680BD00BF00000880000304502A
:10599000000052C7000004500C000020632D3E059B
:1059A000000084CB0100008080B588B000AF786033
:1059B00039600023FB613B68BB617B681B6818464C
:1059C000FFF73AF838617B681B681846FFF75BF809
:1059D000F8603B69002B03D1FB68002B00F0988036
:1059E0007B681B68DB6803F00073002B2AD07B68A0
:1059F0005B7E012B26D17B681B7E012B22D10123EC
:105A0000BB6114E0FB69454A93420DD97B685B6D2D
:105A100043F010027B685A657B689B6D43F001027E
:105A20007B689A65012374E0FB690133FB617B6845
:105A30001B681B6803F04003402BE3D17B681B68A5
:105A400040221A60BB69022B14D07B681B68184681
:105A5000FEF7F2FF0346002B0CD07B681B6818464C
:105A6000FEF7AFFF0346002B04D17B681B68184686
:105A7000FEF7CEFFBB69012B14D07B681B6818466C
:105A8000FFF701F80346002B0CD07B681B68184613
:105A9000FEF797FF0346002B04D17B681B6818466E
:105AA000FEF7DDFFBB69022B05D0BB69032B05D1D7
:105AB0000C237B6105E008237B6102E004237B610A
:105AC00000BFFEF78DFDB8601BE0FEF789FD0246C2
:105AD000BB68D31A052B14D97B681B689A687B694D
