:020000040800F2
:1000000000C000206D3D0008293B0008313B00087E
:10001000393B0008413B0008493B00080000000054
:10002000000000000000000000000000513B00083C
:100030005F3B0008000000006D3B00087B3B0008B0
:10004000BD3D0008BD3D0008BD3D0008893B0008DE
:10005000BD3D0008BD3D0008BD3D0008BD3D000898
:10006000BD3D00089D3B0008AB3B0008BD3D0008BE
:10007000BD3D0008BD3D0008BD3D0008B93B00087E
:10008000BD3D0008BD3D0008BD3D0008BD3D000868
:10009000BD3D0008BD3D0008BD3D0008BD3D000858
:1000A000BD3D0008BD3D0008BD3D0008BD3D000848
:1000B000BD3D00080000000000000000BD3D00083C
:1000C000BD3D0008BD3D0008BD3D0008BD3D000828
:1000D000BD3D0008CD3B0008BD3D0008BD3D00080A
:1000E000BD3D0008BD3D000800000000000000000C
:1000F0000000000000000000000000000000000000
:1001000000000000BD3D000800000000BD3D0008EB
:100110000000000000000000BD3D0008BD3D0008DB
:10012000BD3D0008BD3D0008BD3D0008BD3D0008C7
:10013000BD3D0008000000000000000000000000BD
:10014000BD3D0008BD3D0008BD3D000800000000A9
:10015000BD3D0008BD3D0008E13B0008BD3D000875
:10016000BD3D0008BD3D0008BD3D00080000000089
:10017000BD3D0008BD3D000800000000000000007B
:0C018000BD3D0008BD3D0008BD3D00086D
:1001900010B5054C237833B9044B13B10448AFF3C1
:1001A00000800123237010BDE40100200000000046
:1001B00024CF000808B5034B1BB103490348AFF334
:1001C000008008BD00000000E801002024CF0008E6
:1001D00001F0FF01102A2BDB10F0070F08D010F8F8
:1001E000013B013A8B422DD010F0070F42B3F6D1FC
:1001F000F0B441EA012141EA014122F007047FF015
:1002000000070023F0E80256083C85EA010586EA6B
:10021000010685FA47F5A3FA87F586FA47F6A5FAA7
:1002200087F68EB9EED1F0BC01F0FF0102F00702B3
:1002300032B110F8013B013A83EA010313B1F8D15E
:100240000020704701387047002D06BF354603383F
:10025000073815F0010F07D1013015F4807F02BF78
:10026000013015F4C03F0130F0BC0138704700BFC9
:10027000034613F8012B002AFBD1181A01387047E6
:1002800081F0004102E000BF83F0004330B54FEA47
:1002900041044FEA430594EA050F08BF90EA020FB4
:1002A0001FBF54EA000C55EA020C7FEA645C7FEA47
:1002B000655C00F0E2804FEA5454D4EB5555B8BF6A
:1002C0006D420CDD2C4480EA020281EA030382EADB
:1002D000000083EA010180EA020281EA0303362D6D
:1002E00088BF30BD11F0004F4FEA01314FF4801C40
:1002F0004CEA113102D0404261EB410113F0004F52
:100300004FEA03334CEA133302D0524263EB430308
:1003100094EA050F00F0A780A4F10104D5F1200EA6
:100320000DDB02FA0EFC22FA05F2801841F1000101
:1003300003FA0EF2801843FA05F359410EE0A5F1D5
:1003400020050EF1200E012A03FA0EFC28BF4CF006
:10035000020C43FA05F3C01851EBE37101F00045BC
:1003600007D54FF0000EDCF1000C7EEB00006EEBC9
:100370000101B1F5801F1BD3B1F5001F0CD3490853
:100380005FEA30004FEA3C0C04F101044FEA4452AA
:1003900012F5800F80F09A80BCF1004F08BF5FEA31
:1003A000500C50F1000041EB045141EA050130BD11
:1003B0005FEA4C0C404141EB0101013C28BFB1F523
:1003C000801FE9D291F0000F04BF01460020B1FA6E
:1003D00081F308BF2033A3F10B03B3F120020CDA41
:1003E0000C3208DD02F1140CC2F10C0201FA0CF01F
:1003F00021FA02F10CE002F11402D8BFC2F1200C84
:1004000001FA02F120FA0CFCDCBF41EA0C01904039
:10041000E41AA2BF01EB0451294330BD6FEA040482
:100420001F3C1CDA0C340EDC04F11404C4F120026D
:1004300020FA04F001FA02F340EA030021FA04F37F
:1004400045EA030130BDC4F10C04C4F1200220FAD6
:1004500002F001FA04F340EA0300294630BD21FA14
:1004600004F0294630BD94F0000F83F4801306BFDA
:1004700081F480110134013D4EE77FEA645C18BFCE
:100480007FEA655C29D094EA050F08BF90EA020F65
:1004900005D054EA000C04BF1946104630BD91EA5D
:1004A000030F1EBF0021002030BD5FEA545C05D160
:1004B0004000494128BF41F0004130BD14F580049F
:1004C0003CBF01F5801130BD01F0004545F0FE4113
:1004D00041F470014FF0000030BD7FEA645C1ABF48
:1004E000194610467FEA655C1CBF0B46024650EA7F
:1004F000013406BF52EA033591EA030F41F40021AB
:1005000030BD00BF90F0000F04BF0021704730B530
:100510004FF4806404F132044FF000054FF0000105
:1005200050E700BF90F0000F04BF0021704730B5C6
:100530004FF4806404F1320410F0004548BF40429B
:100540004FF000013EE700BF42004FEAE2014FEAF0
:1005500031014FEA02701FBF12F07F4393F07F4FCB
:1005600081F06051704732F07F4208BF704793F0CE
:100570007F4F04BF41F40021704730B54FF46074E1
:1005800001F0004521F000411CE700BF50EA0102E4
:1005900008BF704730B54FF000050AE050EA01028D
:1005A00008BF704730B511F0004502D5404261EBFD
:1005B00041014FF4806404F132045FEA915C3FF43E
:1005C000D8AE4FF003025FEADC0C18BF03325FEADB
:1005D000DC0C18BF033202EBDC02C2F1200300FA8C
:1005E00003FC20FA02F001FA03FE40EA0E0021FAB1
:1005F00002F11444BDE600BF70B54FF0FF0C4CF49F
:10060000E06C1CEA11541DBF1CEA135594EA0C0F50
:1006100095EA0C0F00F0DEF82C4481EA030621EA8B
:100620004C5123EA4C5350EA013518BF52EA0335C6
:1006300041F4801143F4801338D0A0FB02CE4FF078
:100640000005E1FB02E506F00042E0FB03E54FF0A8
:100650000006E1FB03569CF0000F18BF4EF0010EA0
:10066000A4F1FF04B6F5007F64F5407404D25FEA9C
:100670004E0E6D4146EB060642EAC62141EA55514F
:100680004FEAC52040EA5E504FEACE2EB4F1FD0C91
:1006900088BFBCF5E06F1ED8BEF1004F08BF5FEA0F
:1006A000500E50F1000041EB045170BD06F00046C1
:1006B00046EA010140EA020081EA0301B4EB5C046E
:1006C000C2BFD4EB0C0541EA045170BD41F4801166
:1006D0004FF0000E013C00F3AB8014F1360FDEBF8B
:1006E000002001F0004170BDC4F10004203C35DA67
:1006F0000C341BDC04F11404C4F1200500FA05F3EA
:1007000020FA04F001FA05F240EA020001F000428A
:1007100021F0004110EBD37021FA04F642EB060100
:100720005EEA430E08BF20EAD37070BDC4F10C042A
:10073000C4F1200500FA04F320FA05F001FA04F2EE
:1007400040EA020001F0004110EBD37041F10001DA
:100750005EEA430E08BF20EAD37070BDC4F12005E5
:1007600000FA05F24EEA020E20FA04F301FA05F24D
:1007700043EA020321FA04F001F0004121FA04F2F5
:1007800020EA020000EBD3705EEA430E08BF20EAC5
:10079000D37070BD94F0000F0FD101F000464000FF
:1007A00041EB010111F4801F08BF013CF7D041EA81
:1007B000060195F0000F18BF704703F00046520085
:1007C00043EB030313F4801F08BF013DF7D043EA56
:1007D0000603704794EA0C0F0CEA135518BF95EA0C
:1007E0000C0F0CD050EA410618BF52EA4306D1D193
:1007F00081EA030101F000414FF0000070BD50EAB2
:10080000410606BF1046194652EA430619D094EA3B
:100810000C0F02D150EA013613D195EA0C0F05D125
:1008200052EA03361CBF104619460AD181EA030179
:1008300001F0004141F0FE4141F470014FF0000031
:1008400070BD41F0FE4141F4780170BD70B54FF0CC
:10085000FF0C4CF4E06C1CEA11541DBF1CEA13554C
:1008600094EA0C0F95EA0C0F00F0A7F8A4EB05042E
:1008700081EA030E52EA03354FEA013100F0888025
:100880004FEA03334FF0805545EA131343EA1263EE
:100890004FEA022245EA111545EA10654FEA0026A3
:1008A0000EF000419D4208BF964244F1FD0404F55C
:1008B000407402D25B084FEA3202B61A65EB0305B8
:1008C0005B084FEA32024FF480104FF4002CB6EB75
:1008D000020E75EB030E22BFB61A754640EA0C00F5
:1008E0005B084FEA3202B6EB020E75EB030E22BF35
:1008F000B61A754640EA5C005B084FEA3202B6EB76
:10090000020E75EB030E22BFB61A754640EA9C0034
:100910005B084FEA3202B6EB020E75EB030E22BF04
:10092000B61A754640EADC0055EA060E18D04FEAC2
:10093000051545EA16754FEA06164FEAC30343EA62
:1009400052734FEAC2025FEA1C1CC0D111F4801F2F
:100950000BD141EA00014FF000004FF0004CB6E728
:1009600011F4801F04BF01430020B4F1FD0C88BFC7
:10097000BCF5E06F3FF6AFAEB5EB030C04BFB6EBD2
:10098000020C5FEA500C50F1000041EB045170BDC5
:100990000EF0004E4EEA113114EB5C04C2BFD4EBF2
:1009A0000C0541EA045170BD41F480114FF0000E76
:1009B000013C90E645EA060E8DE60CEA135594EAF2
:1009C0000C0F08BF95EA0C0F3FF43BAF94EA0C0FF5
:1009D0000AD150EA01347FF434AF95EA0C0F7FF46A
:1009E00025AF104619462CE795EA0C0F06D152EABE
:1009F00003353FF4FDAE1046194622E750EA4106A2
:100A000018BF52EA43067FF4C5AE50EA41047FF4B2
:100A10000DAF52EA43057FF4EBAE12E74FF0FF3C17
:100A200006E000BF4FF0010C02E000BF4FF0010CE8
:100A30004DF804CD4FEA410C7FEA6C5C4FEA430C61
:100A400018BF7FEA6C5C1BD001B050EA410C0CBFB0
:100A500052EA430C91EA030F02BF90EA020F002012
:100A6000704710F1000F91EA030F58BF994208BF79
:100A700090422CBFD8176FEAE37040F00100704736
:100A80004FEA410C7FEA6C5C02D150EA013C07D18D
:100A90004FEA430C7FEA6C5CD6D152EA033CD3D0D8
:100AA0005DF8040B704700BF8446104662468C46D2
:100AB0001946634600E000BF01B5FFF7B7FF002805
:100AC00048BF10F1000F01BD4DF808EDFFF7F4FF2E
:100AD0000CBF012000205DF808FB00BF4DF808EDB9
:100AE000FFF7EAFF34BF012000205DF808FB00BFDC
:100AF0004DF808EDFFF7E0FF94BF012000205DF8FE
:100B000008FB00BF4DF808EDFFF7CEFF94BF0120B2
:100B100000205DF808FB00BF4DF808EDFFF7C4FFAB
:100B200034BF012000205DF808FB00BF4FEA410CF4
:100B30007FEA6C5C02D150EA013C0AD14FEA430CD7
:100B40007FEA6C5C02D152EA033C02D14FF0000014
:100B500070474FF0010070474FEA410212F5001252
:100B600015D211D56FF47873B3EB625212D94FEAF4
:100B7000C12343F0004343EA505311F0004F23FADE
:100B800002F018BF404270474FF00000704750EA33
:100B9000013005D111F0004008BF6FF000407047F0
:100BA0004FF00000704700BF4FEA4102B2F1E0434E
:100BB00024BFB3F5001CDCF1FE5C0DD901F0004C44
:100BC0004FEAC0024CEA5070B2F1004F40EB830094
:100BD00008BF20F00100704711F0804F21D113F1C0
:100BE0003872BCBF01F00040704741F480114FEAF9
:100BF0005252C2F11802C2F1200C10FA0CF320FA82
:100C000002F018BF40F001004FEAC1234FEAD3239E
:100C100003FA0CFC40EA0C0023FA02F34FEA430308
:100C2000CCE77FEA625307D150EA01331EBF4FF091
:100C3000FE4040F44000704701F0004040F0FE40AC
:100C400040F40000704700BF53B94AB9002908BFFB
:100C500000281CBF4FF0FF314FF0FF3000F088B983
:100C6000ADF1080C6DE904CE00F006F8DDF804E003
:100C7000DDE9022304B070472DE9F047089D0F46D7
:100C800004468C46002B48D18A42164661D9B2FAF6
:100C900082F34BB1C3F1200201FA03FC20FA02F205
:100CA0009E4042EA0C0C9C404FEA164EB7B2BCFB89
:100CB000FEF1220C0EFB11CC42EA0C4201FB07F0C4
:100CC000904209D9B21801F1FF3C80F0EE809042C9
:100CD00040F2EB8002393244121AA4B2B2FBFEF0A9
:100CE0000EFB102244EA024400FB07F7A74209D991
:100CF000341900F1FF3280F0DA80A74240F2D78049
:100D00003444023840EA0140E41B00211DB1DC40BC
:100D10000023C5E90043BDE8F0878B4206D90DB139
:100D2000C5E9000100210846BDE8F087B3FA83F168
:100D3000002948D1BB4202D3824200F20781841AC3
:100D400067EB030201209446002DE4D0C5E9004C76
:100D5000E1E7002A00F09280B2FA82F3002B40F023
:100D6000A8808A1A4FEA164E1FFA86FC0121200C31
:100D7000B2FBFEF70EFB172240EA02420CFB07F023
:100D8000904207D9B21807F1FF3802D2904200F220
:100D9000E2804746121AA4B2B2FBFEF00EFB10220C
:100DA00044EA02440CFB00FCA44507D9341900F1C5
:100DB000FF3202D2A44500F2CB801046A4EB0C0413
:100DC00040EA0740A2E7C1F120068B4022FA06FC68
:100DD0004CEA030C07FA01F420FA06F3F7404FEA55
:100DE0001C49234300FA01F81FFA8CFEB7FBF9F007
:100DF0001C0C09FB107744EA074400FB0EF7A742DE
:100E000002FA01F20AD91CEB040400F1FF3A80F067
:100E10009B80A74240F2988002386444E41B9FB252
:100E2000B4FBF9F309FB134447EA044403FB0EFE49
:100E3000A64509D91CEB040403F1FF3780F082803A
:100E4000A6457FD9023B644443EA0040A4EB0E046C
:100E5000A0FB02E7BC427346B94663D360D05DB1E4
:100E6000B8EB030264EB090404FA06F622FA01F374
:100E70001E43CC40C5E9006400214CE762084808E5
:100E800042EAC1710B0C43EA00438AB242EA0342D0
:100E9000B3FBF6F1E407B4463746B6461F23B0FB72
:100EA000F6F0D21B41EA004161E7614614E71046C3
:100EB00028E7C3F1200120FA01F29E4027FA01F150
:100EC0009F403A434FEA164E1FFA86FCB1FBFEF7ED
:100ED0000EFB1710110C41EA004107FB0CF8884586
:100EE00004FA03F43AD9711807F1FF3001D28845AA
:100EF0001FD8A1EB0801B1FBFEF808FB0CF70EFBB5
:100F0000181192B242EA0142BA422FD2B21808F145
:100F1000FF31C6D2BA42C4D2A8F102013244C0E7BE
:100F2000F0459CD2BEEB020367EB0C070138B946D3
:100F300095E7A6EB08084144B81EB1FBFEF808FB94
:100F40000CF7DCE73B467FE7504667E70846FBE6E1
:100F50003444023832E7023F32441BE7A1EB080178
:100F60003846B1FBFEF808FB0CF7C8E7414698E7A6
:100F7000704700BF80B485B000AFF860B960134619
:100F8000FB80FB68BA681A60FB88DAB2FB681A71EA
:100F900000BF1437BD465DF8047B704780B58CB048
:100FA00004AFF8607A601A460B467B8113463B819A
:100FB0000023FB837B897B837B687B6139E07B8BB0
:100FC00003F01F037B827B8AC3F12003BB83BA8BB0
:100FD0003989FB8BCB1A9A4203DD3A89FB8BD31AF2
:100FE000BB83FB681868FB681B7919467A8B6423FE
:100FF0000293BB8B01937B690093022304F040FCB6
:1010000003467B747B7C002B01D07B7C16E00520A3
:1010100002F04AFFFA8BBB8B1344FB837A8BBB8BAA
:1010200013449BB2C3F30C037B83BB8B7A691344D9
:101030007B61FA8B3B899A42C1D300231846203743
:10104000BD4680BD80B588B004AFF8607A601A46AE
:101050000B467B8113463B81FB681868FB681B7954
:1010600019467A89642302933B8901937B68009334
:10107000022304F019FD034618461037BD4680BD13
:1010800080B485B000AFF860B9607A607B80FB689F
:10109000BA681A60FB687A685A60FB687A881A81B5
:1010A000FB68BA69DA60FB68BA8B1A8200BF143732
:1010B000BD465DF8047B704780B483B000AF002369
:1010C000FB7104E0FB79DBB20133DBB2FB71FB792E
:1010D000DBB2132BF6D900BF00BF0C37BD465DF85D
:1010E000047B704780B582B000AF78600B46FB7020
:1010F0007B6818697B689B8A0022194604F0F4FA21
:101100007B6898697B68998BFB78002B14BF01235F
:101110000023DBB21A4604F0E7FAFFF7CDFF7B6845
:1011200018697B689B8A0122194604F0DDFAFFF7F3
:10113000C3FF00BF0837BD4680BD80B584B000AF97
:1011400078600B467B8013467B707B78FB730FE0E7
:101150007A88FB7B013B42FA03F3DBB203F0010325
:10116000DBB219467868FFF7BDFFFB7B013BFB73E1
:10117000FB7B002BECD100BF00BF1037BD4680BD0C
:1011800080B582B000AF78600B467B807B681868C2
:101190007B689B880022194604F0A6FAFFF78CFFB3
:1011A0007B880C2219467868FFF7C7FFFFF784FF9A
:1011B0007B6818687B689B880122194604F094FAC2
:1011C00000BF0837BD4680BD80B586B000AFF8606F
:1011D0007A601A460B46FB721346BB72FB681868AE
:1011E000FB689B880022194604F07EFAFFF764FF33
:1011F00003220521F868FFF7A0FFFB7A9BB20622C5
:101200001946F868FFF799FF0023FB750BE0FB7D9B
:101210007A6813441B7804221946F868FFF78DFF9B
:10122000FB7D0133FB75FA7DBB7A9A42EFD3FFF762
:1012300043FFFB681868FB689B880122194604F08D
:1012400053FAFFF739FF00BF1837BD4680BD80B5A0
:1012500084B000AF78600023FB7307E0FB7B7A6803
:10126000134400229A77FB7B0133FB73FB7B1F2B1C
:10127000F4D97B6803F11E02202300217868FFF770
:10128000A3FF00BF1037BD4680BD80B584B000AF5E
:10129000F860B9603B601346FB80FB68BA681A606F
:1012A000FB68FA889A80FB683A689A60FB683A8B18
:1012B0009A81FB68FA691A61FB683A8C9A82FB682A
:1012C0007A6A9A61FB683A8D9A83FB681868FB68B2
:1012D0009B880122194604F007FAFB681869FB682D
:1012E0009B8A0122194604F0FFF9F868FFF7AFFF67
:1012F00000BF1037BD4680BD80B582B000AF7860BA
:1013000040F602017868FFF73BFF00BF0837BD4693
:1013100080BD80B582B000AF786040F60601786885
:10132000FFF72EFF00BF0837BD4680BD80B582B0F5
:1013300000AF786040F608017868FFF721FF40F6BB
:101340000A017868FFF71CFF4FF401617868FFF726
:1013500017FF4FF403617868FFF712FF40F6520160
:101360007868FFF70DFF00BF0837BD4680BD00005D
:10137000F0B597B006AFF86087ED020A0B46FB7137
:10138000B84B07F118041D460FCD0FC495E80300B4
:1013900084E80300B44A07F1100392E8030083E8ED
:1013A00003000023FB63002387F83B30D7ED027A6C
:1013B000F5EEC07AF1EE10FA40F1BA80D7ED027A7C
:1013C0009FEDAA7AF4EEC77AF1EE10FA40F3B080FE
:1013D000D7ED027AF1EE677AC7ED0C7AD7ED027A93
:1013E0009FEDA37AF4EEC77AF1EE10FA12DDD7ED95
:1013F0000C7A9FEDA07A67EE877AB6EE007A77EEE8
:10140000877AFCEEE77A17EE903AFB63012387F8C0
:101410003B300DE0D7ED0C7AB6EE007A77EE877AA6
:10142000FCEEE77A17EE903AFB63002387F83B3037
:10143000002387F83A30072387F839304BE0F96BFF
:101440008D4BA3FB0123DA0813469B0013445B007A
:10145000CA1A97F93930D2B240333B4403F8302CE2
:10146000FB6B854AA2FB0323DB08FB6397F83A304A
:10147000013387F83A30FB6B002B25D1D7ED027A88
:10148000BFEE007AF4EEC77AF1EE10FA13DC27E033
:1014900097F93930DBB2013BDBB287F8393097F985
:1014A000393040333B44002203F8302C97F83A306F
:1014B000013387F83A3097F83A30032B10D897F970
:1014C0003930002BE4DC0BE097F93930DBB2013B1B
:1014D000DBB287F8393097F93930002BAFDA00E00A
:1014E00000BF002387F838301BE097F938304033CD
:1014F0003B4413F8303C0B2B0CD097F93830002BC1
:1015000014DD97F93830013B40333B440A2203F89D
:10151000302C0BE097F93830DBB20133DBB287F8BF
:10152000383097F93830072BDFDDC0E000BFBEE070
:10153000D7ED027AF5EEC07AF1EE10FAC0F28E80A5
:10154000D7ED027A9FED4D7AF4EEC77AF1EE10FAFC
:1015500040F18480D7ED027A9FED497AF4EEC77AA4
:10156000F1EE10FA12D5D7ED027A9FED427A67EECE
:10157000877AB6EE007A77EE877AFCEEE77A17EE96
:10158000903AFB63012387F83B300DE0D7ED027AF8
:10159000B6EE007A77EE877AFCEEE77A17EE903AAD
:1015A000FB63002387F83B30002387F8373007239D
:1015B00087F836304BE0F96B2F4BA3FB0123DA0899
:1015C00013469B0013445B00CA1A97F93630D2B217
:1015D00040333B4403F8302CFB6B274AA2FB032328
:1015E000DB08FB6397F83730013387F83730FB6B44
:1015F000002B25D1D7ED027AB7EE007AF4EEC77A48
:10160000F1EE10FA13D427E097F93630DBB2013B44
:10161000DBB287F8363097F9363040333B4400224E
:1016200003F8302C97F83730013387F8373097F8C4
:101630003730032B10D897F93630002BE4DC0BE061
:1016400097F93630DBB2013BDBB287F8363097F9D9
:101650003630002BAFDA2AE000BF28E0002387F8FD
:1016600035301DE070CF000888CF00080050C3C798
:1016700000401CC600007A44CDCCCCCC20BCBE4C73
:101680000050C34797F9353040333B440A2203F8F2
:10169000302C97F93530DBB20133DBB287F83530C7
:1016A00097F93530072BEDDD002387F83B303B7C85
:1016B0001D467B7C1E46BB7C9C46FB7C3A7D797D2F
:1016C000B87DFC7D049403900291019200936346DF
:1016D000324629462B4800F0F9F8002387F83430C9
:1016E0002CE097F8343040333B4413F8303C194633
:1016F00097F834305B005A1C4B0040333B4413F8DE
:10170000281CFB6813440A469A7797F83430403314
:101710003B4413F8303C194697F8343001335A00F3
:101720004B0040333B4413F8271CFB6813440A4624
:101730009A7797F83430013387F8343097F834309B
:10174000072BCED9FB6893F828305BB203F00E0369
:101750005AB297F93B3013435BB2DAB2FB6883F8B5
:101760002820FB68FA7983F82F20FB6803F11F0219
:1017700011230121F868FFF727FD00BF4437BD465C
:10178000F0BD00BF40CF000880B584B000AFF86066
:10179000B9607A607B80FB68BA681A60FB68BA69D6
:1017A0005A60FB68BA8B1A81FB683A6ADA60FB6898
:1017B000BA8C1A82F86800F03BF8FB681B687A88DC
:1017C0007968184608F071FC00BF1037BD4680BD2F
:1017D00080B582B000AF78607B6858687B681B89F1
:1017E0000122194603F080FF7B68D8687B681B8A5A
:1017F0000122194603F078FF00BF0837BD4680BDBF
:1018000080B582B000AF78607B6858687B681B89C0
:101810000022194603F068FF7B68D8687B681B8A42
:101820000022194603F060FF00BF0837BD4680BDA7
:1018300080B483B000AF7860044A7B68136000BF57
:101840000C37BD465DF8047B704700BF00020020E6
:1018500080B485B000AF78600B467B804FF6FF7395
:10186000FB810023BB8126E0BB897A6813441B7887
:101870001A46FB895340FB810023FB7215E0FB896C
:1018800003F00103002B0AD0FB895B08FB81FB8975
:1018900083F4BF4383F07E03DB43FB8102E0FB89DB
:1018A0005B08FB81FB7A0133FB72FB7A072BE6D9DD
:1018B000BB890133BB81BA897B889A42D4D3FB8927
:1018C00018461437BD465DF8047B70470FB42DE908
:1018D000F043A7B000AF6B461E46504B1B68002B71
:1018E00001D1002391E007F1BC03C7F88430381D13
:1018F000D7F88430D7F8B820802109F02BFAC7F840
:101900009400D7F89430002B01DA01237DE0434B9B
:101910001B681846FFF75CFFD7F89430591D4B1E23
:10192000C7F890300A460023904699464FF00002CF
:101930004FF000034FEAC90343EA58734FEAC80265
:101940000A46002314461D464FF000024FF00003E4
:10195000EB0043EA5473E2000B460733DB08DB007D
:10196000ADEB030D6B46C7F88C30D7F88C30AA224C
:101970001A70D7F89430DAB2D7F88C305A70D7F89A
:1019800094301B12DAB2D7F88C309A70D7F88C30BA
:101990000333D7F89420391D184609F0FAFAD7F81E
:1019A00094309AB23B1D11461846FFF751FF03468B
:1019B000A7F88A30D7F894300333B7F88A20D1B229
:1019C000D7F88C20D154B7F88A301B0A9AB2D7F8CE
:1019D00094300433D1B2D7F88C20D1540F4B1B680C
:1019E0001868D7F894309BB205339AB26423D7F8BD
:1019F0008C1007F06FF8034687F88930074B1B6897
:101A00001846FFF7FDFE97F88930B54618469C3713
:101A1000BD46BDE8F04304B0704700BF000200209F
:101A20002DE9F04387B000AF78600B467B806B46B2
:101A30001E46394B1B68002B01D1002365E0364B55
:101A40001B681846FFF7C4FE7B88591D4B1E7B613F
:101A50000A460023904699464FF000024FF00003DB
:101A60004FEAC90343EA58734FEAC8020A46002303
:101A700014461D464FF000024FF00003EB0043EA0E
:101A80005473E2000B460733DB08DB00ADEB030DBC
:101A90006B463B613B69AA221A707B88DAB23B69CC
:101AA0005A707B881B0A9BB2DAB23B699A703B6919
:101AB00003337A887968184609F06BFA7B881946EF
:101AC0007868FFF7C5FE0346FB817B880333FA89FC
:101AD000D1B23A69D154FB891B0A9AB27B8804338C
:101AE000D1B23A69D1540C4B1B6818687B88053316
:101AF0009AB26423396906F0EDFF03467B73064B07
:101B00001B681846FFF77CFE7B7BB54618461C37E2
:101B1000BD46BDE8F08300BF0002002080B586B05E
:101B200000AFF8607A603B600B46FB72FB7A052BD6
:101B300037D9FB681B78AA2B35D13B6A1B78033356
:101B40001A46FB6813441B781AB23B6A1B780433AD
:101B50001946FB680B441B781BB21B021BB21343D4
:101B60001BB2FB82FB68DA1C3B6A1B7819461046E5
:101B7000FFF76EFE0346BB82FA8ABB8A9A4214D1F3
:101B8000FB685A783B6A1A70FB681A797B681A708E
:101B9000FB68191D3B6A1B781A46386809F0F9F989
:101BA00004E000BF02E000BF00E000BF1837BD4600
:101BB00080BD000080B584B000AFF860B9607A6085
:101BC0000B4B1B681846FFF703FE094B1B68186890
:101BD0007B689AB23223B96806F07CFF044B1B681D
:101BE0001846FFF70DFE7B6818461037BD4680BDCE
:101BF0000002002080B584B000AFF860B9607A6060
:101C00007B80FB68BA681A60FB687A685A60FB6878
:101C10007A881A81FB68BA69DA60FB68BA8B1A8223
:101C2000FB683A6A5A61FB68BA8C1A83FB68BA6A25
:101C3000DA61FB68452283F82020FB68402283F8A4
:101C40002120FB68002283F82220FB68032283F80E
:101C50002320FB68042283F82420FB68002283F8F9
:101C60002520FB68002283F82620FB68192283F8D0
:101C70002820FB68002283F82920FB685868FB684D
:101C80001B890122194603F02FFD00BF1037BD4606
:101C900080BD80B584B000AF78600B46FB70134602
:101CA000BB70FB7843F04003DBB23B73BB787B73C4
:101CB0007B6858687B681B890022194603F014FD75
:101CC0007B68186807F10C010A23022206F0BBF9B1
:101CD0000346FB737B6858687B681B8901221946A1
:101CE00003F002FDFB7B18461037BD4680BD80B572
:101CF00088B002AFF8600B467A60FB720023BB82AB
:101D000000233B82FB7A3B75FB685868FB681B89A4
:101D10000022194603F0E8FCFB68186807F110027E
:101D200007F114010A230093022306F002FB034685
:101D3000FB75FB685868FB681B890122194603F094
:101D4000D3FC7A7C7B681A70FB7D18461837BD4639
:101D500080BD80B582B000AF7860084611461A4653
:101D60000346FB700B46BB7013467B70FA78BB785A
:101D70001343DAB27B6883F820207A783B7C1343E4
:101D8000DAB27B6883F821203A7D3B7E1343DAB2D6
:101D90007B6883F822203A7F97F820301343DAB229
:101DA00097F824301343DAB297F828301343DAB2A5
:101DB00097F82C301343DAB27B6883F8232097F826
:101DC000302097F834301343DAB297F838301343A1
:101DD000DAB27B6883F8242097F83C2097F84030EB
:101DE0001343DAB297F844301343DAB297F8483025
:101DF0001343DBB25AB2B7F84C301B0A9BB25BB24A
:101E000003F003035BB213435BB2DAB27B6883F87F
:101E10002520B7F84C30DAB27B6883F8262097F893
:101E2000502097F854301343DAB297F858301343E0
:101E3000DAB297F85C301343DAB27B6883F8282073
:101E400097F8602097F864301343DAB27B6883F820
:101E500029207B6820331946786800F005F803468E
:101E600018460837BD4680BD80B584B000AF7860A5
:101E700039607B6820330A223968184609F089F8EE
:101E80003B681B781A4600217868FFF702FF03467B
:101E9000FB73FB7B002B76D13B6801331B781A4622
:101EA00001217868FFF7F5FE0346FB73FB7B002BEF
:101EB0006BD13B6802331B781A4602217868FFF722
:101EC000E8FE0346FB73FB7B002B60D13B680333CA
:101ED0001B781A4603217868FFF7DBFE0346FB7385
:101EE000FB7B002B55D13B6804331B781A46042139
:101EF0007868FFF7CEFE0346FB73FB7B002B4AD1CD
:101F00003B6805331B781A4605217868FFF7C1FE48
:101F10000346FB73FB7B002B3FD13B6806331B78EA
:101F20001A4606217868FFF7B4FE0346FB73FB7B75
:101F3000002B34D13B6806331B781A46062178689B
:101F4000FFF7A7FE0346FB73FB7B002B29D13B6801
:101F500007331B781A4608217868FFF79AFE034674
:101F6000FB73FB7B002B1ED13B6808331B781A46A2
:101F700009217868FFF78DFE0346FB73FB7B002B7E
:101F800013D1002313E000BF10E000BF0EE000BF3C
:101F90000CE000BF0AE000BF08E000BF06E000BFA1
:101FA00004E000BF02E000BF00E000BFFB7B18467A
:101FB0001037BD4680BD000080B584B000AF7860AA
:101FC00007F10E031A4607217868FFF790FE0346D3
:101FD000FB73BB7B002B2ED0BB7B03F00403002BD9
:101FE00007D0174B40F2011216491748FFF76EFC55
:101FF0001CE0BB7B03F00203002B07D0134B40F225
:10200000051210491048FFF761FC0FE0BB7B03F09D
:102010000103002B07D00E4B40F2091209490A4870
:10202000FFF754FC02E00B48FFF750FC07220721A2
:102030007868FFF72EFEFB7B18461037BD4680BD43
:1020400090CF0008B8CF0008D0CF0008E4CF000838
:1020500000D0000850D0000880B582B000AF786092
:102060000B46FB707B6893F82220FB781343DBB2AE
:102070001A4602217868FFF70CFE03461846083717
:10208000BD4680BD80B582B000AF78607B68D868FF
:102090007B681B8A0122194603F026FB00BF083724
:1020A000BD4680BD80B582B000AF78607B68D868DF
:1020B0007B681B8A0022194603F016FB00BF083715
:1020C000BD4680BD80B584B000AFF860B9607A606D
:1020D0007B80FB68BA681A60FB687A685A60FB68A4
:1020E0007A881A81FB68BA69DA60FB68BA8B1A824F
:1020F000FB683A6A5A61FB685868FB681B890122D1
:10210000194603F0F1FA00BF1037BD4680BD80B517
:1021100084B000AF78600B46FB701346BB70FB7851
:1021200043F04003DBB23B73BB787B737B6858683A
:102130007B681B890022194603F0D6FA7B68186871
:1021400007F10C010A23022205F07DFF0346FB7311
:102150007B6858687B681B890122194603F0C4FA22
:10216000FB7B18461037BD4680BD80B588B002AFF6
:10217000F8600B467A60FB72FB7A3B75FF237B7538
:10218000FB685868FB681B890022194603F0ACFA0B
:10219000FB68186807F1100207F114010A23009385
:1021A000022306F0C6F80346FB757A7C7B681A703A
:1021B000FB685868FB681B890122194603F094FAF2
:1021C000FB7D18461837BD4680BD80B582B000AF94
:1021D0007860084611461A460346FB700B46BB70F2
:1021E00013467B70FA78BB781343DAB27B781343DB
:1021F000DAB23B7D1343DAB23B7C1343DAB23B7E67
:102200001343DAB27B681A763A7F97F8203013438B
:10221000DAB297F824301343DAB27B685A767B68D7
:102220001F229A7697F8282097F82C301343DAB2B9
:1022300097F830301343DAB27B68DA76BB8E1B0A2C
:102240009BB2DAB27B681A77BB8EDAB27B685A77B8
:102250003B8F1B0A9BB2DAB27B689A773B8FDAB26C
:102260007B689A77BB8F1B0A9BB2DAB27B6883F8D4
:102270002020BB8FDAB27B6883F821207B6818337B
:102280001946786800F005F8034618460837BD4639
:1022900080BD80B586B000AF786039607B68183348
:1022A0000A223968184608F074FEC0233B7307F110
:1022B0000C0301330A223968184608F06AFE7B686D
:1022C00058687B681B890022194603F00DFA7B6869
:1022D000186807F10C0114230B2205F0B4FE034625
:1022E000FB757B6858687B681B890122194603F0DF
:1022F000FBF9FB7D18461837BD4680BD80B582B01E
:1023000000AF78607B68D8687B681B8A0122194619
:1023100003F0EAF900BF0837BD4680BD80B582B042
:1023200000AF78607B68D8687B681B8A00221946FA
:1023300003F0DAF900BF0837BD4680BD80B584B030
:1023400000AF786007F10E031A4602217868FFF7A4
:102350000CFF0346FB73BB7B03F00403002B05D08B
:10236000124BAF2212491348FFF7B0FABB7B03F0C0
:102370000203002B05D0104BB3220D490D48FFF787
:10238000A5FABB7B03F00103002B05D00B4BB72252
:1023900007490B48FFF79AFA1F2203217868FFF7D5
:1023A000B6FEFB7B18461037BD4680BD6CD00008DA
:1023B0008CD00008A4D00008B8D00008D8D00008FD
:1023C00000D1000880B584B000AF786040233B7333
:1023D0007B681B7E43F00103DBB27B737B6858682C
:1023E0007B681B890022194603F07EF97B68186818
:1023F00007F10C010A23022205F025FE0346FB73B8
:102400007B6858687B681B890122194603F06CF9C8
:10241000FB7B18461037BD4680BD00002DE9F0411A
:10242000B2B004AF786007F160032822002118469B
:1024300008F030FD07F1380328220021184608F083
:1024400029FD902387F860307B6858687B681B897A
:102450000022194603F048F97B68186807F1380232
:1024600007F160010A230093282305F062FF034669
:1024700087F8A1307B6858687B681B890122194660
:1024800003F032F90023C7F8AC3057E0D7F8AC209E
:1024900013465B0013440133C7F88C3007F1380250
:1024A000D7F88C3013441B781A04D7F88C300133DA
:1024B000B8333B4413F8803C1B021343D7F88C20FD
:1024C0000232B8323A4412F8802C1343C7F88830ED
:1024D000D7F8AC300B2B04D1D7F88830C7F8B4301C
:1024E00027E0D7F8AC300C2B04D1D7F88830C7F8E8
:1024F000B0301EE0D7F8AC3003F00103002B0CD154
:10250000D7F8AC30DA0F13445B109B00B8333B4470
:10251000D7F8882043F8982C0BE0D7F8AC30DA0FC6
:1025200013445B109B00B8333B44D7F8882043F832
:10253000AC2CD7F8AC300133C7F8AC30D7F8AC309E
:102540000C2BA3DD7B685B7E03F0C003C02B16D091
:10255000C02B18DC802B0ED0802B14DC002B02D07B
:10256000402B04D00FE0022387F8AB3015E00A239C
:1025700087F8AB3011E0142387F8AB300DE0282347
:1025800087F8AB3009E00A2387F8AB3097F8AB3017
:1025900019469E48FFF79AF900BF7B685B6907EE12
:1025A000903AB8EE677ADFED9A6AC6EE877AC7EDA1
:1025B000277AD7F89C00FDF7C7FF02460B469548DF
:1025C000FFF784F9D7F8B020D7F8B430D31A07EE64
:1025D000903AF8EE676A97F8AB3007EE903AF8EE6B
:1025E000E77AB7EE007A37EEC77AC6EE877AC7ED9C
:1025F000267A97F8AB40D7F89800FDF7A5FF02467A
:102600000B46CDE900232346D7F8B420D7F8B01005
:102610008148FFF75BF9D7ED267AF5EE407AF1EEC7
:1026200010FA08D0D7ED276A97ED267AC6EE877A9A
:10263000C7ED297A02E0794BC7F8A430D7F8A40097
:10264000FDF782FF02460B467548FFF73FF97B68AE
:102650001B7E03F00203002B47D17248FFF736F9C7
:10266000002387F8A3303CE097F8A3309B00B833F1
:102670003B4453F8983C07EE903AB8EE677A97F8E7
:10268000A330D7ED297A67EE277A7A6808339B0062
:1026900013440433C3ED007A97F8A34097F8A330AE
:1026A0009B00B8333B4453F8985C97F8A36097F8C5
:1026B000A3307A6808339B00134404331B68184620
:1026C000FDF742FF02460B46CDE9002333462A467A
:1026D00021465548FFF7FAF897F8A330013387F8F9
:1026E000A33097F8A330042BBED97B681B7E03F080
:1026F0000203002B00F082804C48FFF7E7F87B686C
:102700005B7E03F0380387F8973097F897301946C7
:102710004748FFF7DBF8002387F8A2306AE03B6AFE
:1027200007EE903AB8EE677A97F8A23001339B0033
:10273000B8333B4453F8983C07EE903AF8EE677A8A
:1027400077EE677A97ED297A67EE277AC7ED247AD4
:1027500097F8A2309B00B8333B4453F8AC2C97F861
:10276000973022FA03F307EE903AB8EE677AD7ED86
:10277000277A27EE277A97F8A230D7ED247A77EEDA
:10278000277A7A6808339B0013440433C3ED007A38
:1027900097F8A26097F8A2309B00B8333B4453F8F7
:1027A000983C3B6097F8A28097F8A2309B0003F119
:1027B000B801CB1953F8AC4C97F8A25097F8A23057
:1027C0007A6808339B00134404331B681846FDF7EE
:1027D000BBFE02460B46CDE9022301950094434619
:1027E0003A6831461348FFF771F897F8A230013381
:1027F00087F8A23097F8A230042B90D997F8A1302F
:102800001846B837BD46BDE8F08100BF14D10008B6
:10281000A5D4685340D1000858D1000800005C429C
:10282000B0D10008C4D10008D8D10008F8D1000800
:1028300008D2000824D2000880B483B000AF034659
:10284000FB80FB88102B02D1074B01221A70FB88FA
:10285000082B02D1054B01221A7000BF0C37BD4670
:102860005DF8047B704700BF8806002089060020C1
:1028700080B584B002AF78600B467B807B681B68B4
:10288000164A934225D1786806F0B7F97B681B6831
:1028900010221A627B88D9B2114B0093114B124A55
:1028A0001248FFF73BF9124B01221A70114B3222EA
:1028B0001A704FF480720D49786807F0F6FB7B6858
:1028C0005B6F1B681A687B685B6F1B6822F00402F1
:1028D0001A6000BF0837BD4680BD00BF0038014008
:1028E0008C0700208C0600208B06002004020020AC
:1028F0008A060020D007002080B586B006AF4FF4CE
:10290000006303934FF0904302934FF4805301937D
:102910004FF0904300934FF48073234A2349244897
:10292000FEF732FFA02223492348FEF723FB234B67
:10293000029320230193224B009320234FF09042D7
:1029400020492148FFF7BEFB1C4B049380230393CF
:102950001B4B029340230193194B009310234FF01C
:10296000904218491948FFF745F908230493184B7A
:10297000039310230293164B019320230093144BCF
:10298000402213491348FEF780FC042301934FF0C3
:102990009043009304230A4A0F491048FEF770FB46
:1029A00000BFBD4680BD00BF0402002044040020DB
:1029B00074060020680300206C06002000127A00D4
:1029C0000008004838050020F40500202C060020EF
:1029D00000040048B4050020BC0300205806002075
:1029E00080B500AF0D48FEF70BFF01224FF4807158
:1029F0004FF0904002F078FE0948FFF77FFC09494C
:102A00000748FFF746FC0848FFF73CFB0748FEF77E
:102A100073FC0648FEF77DFC00BF80BD74060020F5
:102A2000F40500200C0600202C060020B405002030
:102A300080B500AF0348FFF771FC0348FFF732FB96
:102A400000BF80BDF40500202C06002080B598B0A2
:102A500016AF4FF4C6730B934FF423730A934FF6DC
:102A6000FF73099302230893022307930423069319
:102A7000042305930023049340230393022302932A
:102A800000230193002300930023002200213748F4
:102A9000FFF79BFB0223159300231493002313934A
:102AA0000423129318231193002310933E230F93B2
:102AB00000230E9300230D9300230C93E0230B932C
:102AC0001F230A93002309930023089303230793EA
:102AD000002306930023059300230493002303930C
:102AE0000123029300230193002300930023052276
:102AF00040211F48FFF72DF9FF237B711D4808F087
:102B0000AFF80023FB710EE07A1DFB7919461748D8
:102B1000FFF72BFBFB797A791946174808F038F84C
:102B2000FB790133FB71FB79092BEDD9134808F0D0
:102B300097F80023BB710EE07A1DBB7919460C484B
:102B4000FFF7D5F8BB797A7919460B4808F020F8D9
:102B5000BB790133BB71BB79092BEDD90848FEF76E
:102B6000E5FB00BF0837BD4680BD00BFF40500206F
:102B70002C06002058D200087CD200089CD2000805
:102B8000B405002080B582B000AF04214D48FFF7A6
:102B900063FA4D4B00221A704C48FFF713FC01F00A
:102BA00077F978600AE001F073F902467B68D31A7E
:102BB000632B03D9464808F053F803E0424B1B78D7
:102BC000002BF0D0404B1B78012B23D13D48FFF761
:102BD000F3F9642001F068F93C48FFF7AFFB3B488C
:102BE000FFF71CFC394B5B6A3A4A1360364B0022F4
:102BF0001A70384BD3ED007A9FED377AC7EE876AAB
:102C000016EE900AFDF7A0FC02460B46334807F08B
:102C1000BFFF02E0324808F023F82A48FFF742FAE3
:102C2000642001F041F92748FFF72CFA642001F0F5
:102C30003BF900212348FFF70FFA234B00221A70BB
:102C40002248FFF7BFFB01F023F938600AE001F0EA
:102C50001FF902463B68D31A632B03D9214807F0BA
:102C6000FFFF03E0184B1B78002BF0D0164B1B78AE
:102C7000012B20D11348FFF79FF91448FFF75EFBA3
:102C80001248FFF7CBFB114B5B6A174A13600E4BE0
:102C900000221A70144BD3ED007A9FED0F7AC7EE25
:102CA000876A16EE900AFDF74FFC02460B460F4866
:102CB00007F06EFF02E00E4807F0D2FF00BF0837B2
:102CC000BD4680BD2C06002088060020F4050020AB
:102CD000C0D200089007002000247449DCD200080C
:102CE00008D3000820D30008A807002040D300081C
:102CF00070D30008000000002DE9B04F8CB008AF81
:102D0000554B1B681846FDF71FFC4FA3D3E9002362
:102D1000FDF772FC02460B46104619464CA3D3E958
:102D20000023FDF7B3FA02460B4610461946FDF79D
:102D30003BFF0346FB60494B93ED007A484BD3EDD4
:102D4000007A77EE677AC7ED027A97ED027AD7EDCF
:102D5000037A27EE277AD7ED037A67EE277ADFED3D
:102D6000416A87EEA67ADFED406AC7EE267A3F4BCE
:102D7000C3ED007A3D4BD3ED007AB2EE047A67EEF4
:102D8000877A9FED3B7A67EE877A9FED3A7A67EE16
:102D9000877A9FED387A27EE877AF1EE006AC7EEE0
:102DA000267A354BC3ED007A344B1B6807EE903A18
:102DB000F8EE677ADFED326A87EEA67A2E4BD3ED16
:102DC000007A27EE277A2F4BD3ED007A77EE277A19
:102DD0002C4BC3ED007AD7ED027A9FED2B7AC7EE2C
:102DE000876A16EE900AFDF7AFFBC7E90001F868A5
:102DF000FDF7AAFB04460D461C4B1B681846FDF761
:102E0000A3FB804689461C4B1B681846FDF79CFBBC
:102E100082468B461B4B1B681846FDF795FB024606
:102E20000B46CDE90623CDE904ABCDE90289CDE916
:102E30000045D7E90023154807F0AAFE00BF103768
:102E4000BD46BDE8B08F00BF48BF7D1D3827144088
:102E5000643BDF4F8DE99540C007002090070020BC
:102E6000A80700208FC2F53DA5D46853C4070020F1
:102E7000DB0F49409999193EC80700200000002047
:102E800000007A44CC07002000247449DCD30008F9
:102E900080B500AF054BD3ED007A0221B0EE670A92
:102EA0000348FEF765FA00BF80BD00BFC8070020D9
:102EB000B405002080B5ADF5CB6D00AF3A1D40F2F2
:102EC000546319210648FEF7BDF83B1D40F25461DA
:102ED0001846FEF7A5FD00BF07F5CB67BD4680BDD0
:102EE0006C06002080B582B000AF064B1B687B608B
:102EF0003B1D04211846FEF793FD00BF0837BD4671
:102F000080BD00BFC807002080B58CB000AF3B4635
:102F100018220A49184608F03CF83B461833182294
:102F20000749184608F035F83B4630211846FEF7A9
:102F300077FD00BF3037BD4680BD00BF9007002041
:102F4000A807002080B500AF1F492048FFF7A1F96E
:102F50001F492048FEF788FF1B4B1B7D1A461E4B5E
:102F60001A60194B5B7D1A461C4B1A60164B9B7DF1
:102F70001A461B4B1A60144BDB7D1A46194B1A601C
:102F8000114B1A7E184B9A700F4B5A7E164B5A7083
:102F90000D4B9A7E144BDA700B4BDA7E134B1A7082
:102FA000094B1A7F114B5A70074B5A7F0F4B9A707F
:102FB00000220D490E4804F044FD00220B490C4844
:102FC00004F0A2FC00BF80BD8C060020F4050020A8
:102FD000970600202C06002000000020040000209E
:102FE000080000200C000020B00500209C050020F7
:102FF0001405002080B500AF1823034A01210348BF
:10300000FDF7CCFF00BF80BD8C0600206C060020C1
:1030100080B582B000AF00F0D2FE00F0A7F800F05B
:1030200093FA00F073FA00F0F9F800F031FA00F0CA
:10303000D7F900F005FA00F065F900F0A3F9FFF701
:103040005BFCFFF7CDFCFFF701FD404807F008FEF1
:10305000FFF7C6FCFFF796FDFFF74EFEFFF718FFE0
:10306000FFF7E6FC3A4B1B78002B2AD0394B1B7834
:10307000013B042B1BD801A252F823F09130000829
:10308000973000089D300008A3300008A9300008E0
:10309000FFF710FF0BE0FFF725FF08E0FFF734FF15
:1030A00005E0FFF74FFF02E0FFF7A4FF00BF284B4A
:1030B00000221A70274B00221A70274B32221A70F6
:1030C00005E0254B1B78013BDAB2234B1A702348ED
:1030D00004F088FE224B1F229A61204B1B68DB689C
:1030E000DAB21E4B1B6862F49062DA601D4B1B68FB
:1030F00007EE903AB8EE677ADFED1B6AC7EE267AE4
:10310000FCEEE77A17EE903A7B600022796813486C
:1031100004F0D4FD124B1F229A6100F0E9FE012158
:103120004FF4804003F044F900F020F800F0F0FE86
:103130000B4B1F229A61094B1B68DB68DAB2074B05
:103140001B6862F49062DA607FE700BF48D4000831
:103150008A0600208B060020D007002014050020DE
:10316000007000400000002023DBF93E80B596B0DF
:1031700000AF07F1140344220021184607F08AFE2D
:103180003B4600221A605A609A60DA601A614FF476
:10319000007003F033F90346002B01D000F088FAE9
:1031A00003F0F6F81C4BD3F890301B4A23F01803B9
:1031B000C2F890301C237B610123FB610123BB62B9
:1031C0000123FB6200233B63A0237B630023FB639B
:1031D00007F11403184603F0BDF90346002B01D094
:1031E00000F066FA0F233B6000237B600023BB6086
:1031F0000023FB6000233B613B460121184603F09E
:10320000BDFD0346002B01D000F052FA04F0F2F9A4
:1032100000BF5837BD4680BD0010024080B586B063
:1032200000AF3B4600221A605A609A60DA601A6169
:103230005A61304B304A1A602E4B00225A602D4B97
:1032400000229A602B4B0022DA602A4B01221A617D
:10325000284B04225A61274B00221A76254B002264
:103260005A76244B0222DA61224B002283F8202076
:10327000204B00229A621F4B0022DA621D4B002273
:1032800083F830201B4B00225A631A4B002283F82C
:103290003820184800F0D8FF0346002B01D000F07A
:1032A00007FA164B3B6006237B600623BB607F2337
:1032B000FB6004233B6100237B613B4619460D48BC
:1032C00001F004F90346002B01D000F0F1F90C4B9A
:1032D0003B600C237B603B461946064801F0F6F83C
:1032E0000346002B01D000F0E3F900BF1837BD46BC
:1032F00080BD00BF040300200000045001000080D6
:103300002000F01480B500AF1B4B1C4A1A601A4B0A
:103310001B4A5A60184B00229A60174B0122DA6050
:10332000154B00221A61144B00225A61124B0022E5
:103330009A61114B0022DA610F4B00221A620E488B
:1033400002F002FA0346002B01D000F0B1F900218F
:10335000094802F085FF0346002B01D000F0A8F9D0
:103360000021054802F0C7FF0346002B01D000F002
:103370009FF900BF80BD00BF6803002000580040D7
:10338000B47CB00080B500AF124B134A1A60114BE9
:10339000124A5A600F4B4FF080529A600D4B002238
:1033A000DA600C4B00221A610A4B0C225A61094B5D
:1033B00000229A61074B00221A62064B00225A62D1
:1033C000044805F039FB0346002B01D000F070F9EA
:1033D00000BF80BDBC0300200080004024330300F8
:1033E00080B500AF144B154A1A60134B4FF4E1320D
:1033F0005A60114B00229A600F4B0022DA600E4B8C
:1034000000221A610C4B0C225A610B4B00229A616C
:10341000094B0022DA61084B00221A62064B002297
:103420005A62054805F008FB0346002B01D000F066
:103430003FF900BF80BD00BF4404002000380140B8
:1034400080B500AF104B114A1A600F4B00225A6032
:103450000D4B7F229A600C4BFF22DA600A4B002250
:103460001A61094B00225A61074B00229A61064BF0
:103470000022DA61044804F0BFF90346002B01D0B2
:1034800000F016F900BF80BD1405002000280040A0
:1034900080B500AF1B4B1C4A1A601A4B4FF4827266
:1034A0005A60184B00229A60164B4FF4E062DA60C3
:1034B000144B00221A61134B00225A61114B4FF436
:1034C00000729A610F4B0022DA610E4B00221A62E1
:1034D0000C4B00225A620B4B00229A62094B0722C6
:1034E000DA62084B00221A63064B08225A63054829
:1034F00004F006FD0346002B01D000F0D9F800BF10
:1035000080BD00BF380500200030014080B582B08A
:1035100000AF0C4B9B6C0B4A43F001039364094BC7
:103520009B6C03F001037B607B68002200210F206D
:1035300001F089FC0F2001F0A2FC00BF0837BD4656
:1035400080BD00BF0010024080B588B000AF07F119
:103550000C0300221A605A609A60DA601A61504BBC
:10356000DB6C4F4A43F00403D3644D4BDB6C03F038
:103570000403BB60BB684A4BDB6C494A43F0010360
:10358000D364474BDB6C03F001037B607B68444BE7
:10359000DB6C434A43F00203D364414BDB6C03F022
:1035A00002033B603B680022E4213E4802F09CF8A5
:1035B000002241F204114FF0904002F095F80122F0
:1035C0004FF403614FF0904002F08EF80022382152
:1035D000354802F089F801224021334802F084F88E
:1035E000E423FB6001233B6100237B610023BB617B
:1035F00007F10C0319462B4801F0FCFE0823FB6081
:103600004FF488133B6100237B6107F10C031946DB
:10361000244801F0EFFE41F63413FB6001233B61C7
:1036200000237B610023BB6107F10C0319464FF0B7
:10363000904001F0DFFE1023FB604FF404133B6168
:1036400001237B6107F10C031946164801F0D2FEF5
:103650007823FB6001233B6100237B610023BB6176
:1036600007F10C031946104801F0C4FE0F4B5B68CC
:103670000E4A43F48033536000220021092001F0F8
:10368000E2FB092001F0FBFB002200210A2001F0EF
:10369000DAFB0A2001F0F3FB00BF2037BD4680BDF6
:1036A00000100240000800480004004800000140EB
:1036B00080B400AF72B600BF00BFFDE780B483B036
:1036C00000AF0F4B1B6E0E4A43F0010313660C4B09
:1036D0001B6E03F001037B607B68094B9B6D084AFE
:1036E00043F080539365064B9B6D03F080533B6022
:1036F0003B6800BF0C37BD465DF8047B704700BFD8
:103700000010024080B5A0B000AF786007F16C03F4
:1037100000221A605A609A60DA601A6107F1100399
:103720005C220021184607F0B5FB7B681B68254A20
:10373000934243D14FF480433B614FF080533B664B
:1037400001237B610223BB610823FB6107233B62EA
:1037500002237B620223BB624FF08073FB6207F19E
:103760001003184603F02EFD0346002B01D0FFF78F
:103770009FFF154BDB6C144A43F40053D364124B88
:10378000DB6C03F40053FB60FB680F4BDB6C0E4AF1
:1037900043F00103D3640C4BDB6C03F00103BB600B
:1037A000BB680123FB660B233B6700237B6707F1A4
:1037B0006C0319464FF0904001F01CFE00BF8037AB
:1037C000BD4680BD000004500010024080B5A0B08E
:1037D00000AF786007F16C0300221A605A609A60AB
:1037E000DA601A6107F110035C220021184607F025
:1037F00051FB7B681B681F4A934236D180233B6193
:1038000000237B6407F11003184603F0DBFC03463A
:10381000002B01D0FFF74CFF174BDB6C164A43F02F
:103820000203D364144BDB6C03F00203FB60FB6800
:103830004FF4C043FB6612233B6700237B670323DF
:10384000BB670423FB6707F16C0319460B4801F0C3
:10385000D1FD094B9B6D084A43F480039365064BE9
:103860009B6D03F48003BB60BB6800BF8037BD461F
:1038700080BD00BF00580040001002400004004816
:1038800080B5A2B000AF786007F1740300221A601F
:103890005A609A60DA601A6107F118035C2200210D
:1038A000184607F0F7FA7B681B685C4A934240D1E0
:1038B0002023BB6100237B6407F11803184603F043
:1038C00081FC0346002B01D0FFF7F2FE544BDB6D69
:1038D000534A43F00103D365514BDB6D03F0010301
:1038E0007B617B694E4BDB6C4D4A43F00403D36430
:1038F0004B4BDB6C03F004033B613B6903237B67A9
:103900000223BB670023FB670323C7F8803008232B
:10391000C7F8843007F174031946424801F06AFD84
:1039200000220021462001F08EFA462001F0A7FA7D
:1039300070E07B681B683C4A93426BD10123BB61FA
:103940000023BB6307F11803184603F03BFC034652
:10395000002B01D0FFF7ACFE314B1B6E304A43F415
:10396000804313662E4B1B6E03F48043FB60FB68A1
:103970002B4BDB6C2A4A43F00103D364284BDB6CEE
:1039800003F00103BB60BB684FF4C0637B67022395
:10399000BB670023FB670323C7F880300723C7F802
:1039A000843007F1740319464FF0904001F022FD76
:1039B0001E4B1F4A1A601D4B02225A601B4B0022ED
:1039C0009A601A4B0022DA60184B80221A61174B5A
:1039D00000225A61154B00229A61144B0022DA61D1
:1039E000124B4FF400521A62104801F063FA03467A
:1039F000002B01D0FFF75CFE7B680C4A5A670B4A2C
:103A00007B68936200220021252001F01CFA25200A
:103A100001F035FA00BF8837BD4680BD0080004008
:103A2000001002400008004800380140CC0400208B
:103A30005800024080B59AB000AF786007F10C03DF
:103A40005C220021184607F025FA7B681B68134AA0
:103A500093421FD14FF40033FB604FF400737B6639
:103A600007F10C03184603F0ADFB0346002B01D011
:103A7000FFF71EFE0A4BD3F89030094A43F4004387
:103A8000C2F8903000220021032001F0DCF903206D
:103A900001F0F5F900BF6837BD4680BD0028004041
:103AA0000010024080B58AB000AF786007F11403BF
:103AB00000221A605A609A60DA601A617B681B689B
:103AC000174A934228D1174B1B6E164A43F4805372
:103AD0001366144B1B6E03F480533B613B69114B1F
:103AE000DB6C104A43F00103D3640E4BDB6C03F034
:103AF0000103FB60FB68C2237B610223BB610023DF
:103B0000FB6103233B6205237B6207F11403194623
:103B10004FF0904001F06EFC00BF2837BD4680BDDD
:103B2000003001400010024080B400AF00BFFDE74C
:103B300080B400AF00BFFDE780B400AF00BFFDE779
:103B400080B400AF00BFFDE780B400AF00BFFDE769
:103B500080B400AF00BFBD465DF8047B704780B401
:103B600000AF00BFBD465DF8047B704780B400AF76
:103B700000BFBD465DF8047B704780B500AF00F024
:103B800073F900BF80BD000080B500AF024804F0AB
:103B900087F900BF80BD00BF1405002080B500AFCD
:103BA000082001F0B9FD00BF80BD80B500AF102036
:103BB00001F0B2FD00BF80BD80B500AF024801F04A
:103BC00017FB00BF80BD00BFCC04002080B500AF54
:103BD000024805F0A5F800BF80BD00BF44040020E6
:103BE00080B500AF024805F09BF800BF80BD00BF64
:103BF000BC03002080B400AF01231846BD465DF829
:103C0000047B704780B582B000AF7860396007F000
:103C100093F9034616221A604FF0FF33184608370F
:103C2000BD4680BD80B582B000AF78604FF0FF31F7
:103C30007868FFF7E7FF00BFFDE780B586B000AF0B
:103C4000F860B9607A6000237B610AE0AFF300801E
:103C50000146BB685A1CBA60CAB21A707B6901334C
:103C60007B617A697B689A42F0DB7B68184618377B
:103C7000BD4680BD80B483B000AF78604FF0FF33A5
:103C800018460C37BD465DF8047B704780B483B09E
:103C900000AF786039603B684FF400525A600023EF
:103CA00018460C37BD465DF8047B704780B483B07E
:103CB00000AF7860012318460C37BD465DF8047BE1
:103CC000704780B485B000AFF860B9607A600023B7
:103CD00018461437BD465DF8047B704780B586B042
:103CE00000AF7860144A154BD31A7B617B693B6146
:103CF000134B1B68002B02D1114B124A1A60104B58
:103D00001A687B6813443A699A4207D207F014F99B
:103D100003460C221A604FF0FF3309E0084B1B6882
:103D2000FB60074B1A687B681344054A1360FB6805
:103D300018461837BD4680BD00C0002000040000B2
:103D4000D40700202809002080B400AF064BD3F828
:103D50008830054A43F47003C2F8883000BFBD467E
:103D60005DF8047B704700BF00ED00E0DFF834D061
:103D7000FFF7EAFF0C480D490D4A002302E0D45832
:103D8000C4500433C4188C42F9D30A4A0A4C0023A5
:103D900001E013600432A242FBD307F0D3F8FFF72F
:103DA00037F9FEE700C0002000000020E4010020F9
:103DB00024D80008E401002028090020FEE780B58F
:103DC00082B000AF0023FB71032001F031F80F2017
:103DD00000F00EF80346002B02D00123FB7101E036
:103DE000FFF76CFCFB7918460837BD4680BD000024
:103DF00080B584B000AF78600023FB73174B1B784D
:103E0000002B23D0164B1A68144B1B7819464FF41D
:103E10007A73B3FBF1F3B2FBF3F3184601F03DF80C
:103E20000346002B0FD17B680F2B09D8002279683D
:103E30004FF0FF3001F007F80A4A7B68136007E093
:103E40000123FB7304E00123FB7301E00123FB73F7
:103E5000FB7B18461037BD4680BD00BF1800002010
:103E6000100000201400002080B400AF064B1B7827
:103E70001A46064B1B681344044A136000BFBD4634
:103E80005DF8047B704700BF18000020D8070020B1
:103E900080B400AF034B1B681846BD465DF8047B39
:103EA000704700BFD807002080B584B000AF7860AD
:103EB000FFF7EEFFB8607B68FB60FB68B3F1FF3F84
:103EC00005D00A4B1B781A46FB681344FB6000BF01
:103ED000FFF7DEFF0246BB68D31AFA689A42F7D8AA
:103EE00000BF00BF1037BD4680BD00BF18000020D6
:103EF00080B400AF054B1B68044A23F00203136033
:103F000000BFBD465DF8047B704700BF10E000E0D5
:103F100080B400AF054B1B68044A43F002031360F2
:103F200000BFBD465DF8047B704700BF10E000E0B5
:103F300080B483B000AF786039607B689B6823F4FD
:103F40007C123B681A437B689A6000BF0C37BD4601
:103F50005DF8047B704780B483B000AF786039604F
:103F60007B689B6823F0E0723B681A437B689A6029
:103F700000BF0C37BD465DF8047B704780B483B04A
:103F800000AF78607B689B6803F0E07318460C37DD
:103F9000BD465DF8047B704780B487B000AFF86021
:103FA000B9607A603B60FB6860331A46BB689B006F
:103FB00013447B617B691A68084B13407A6802F0EE
:103FC000F8413A680A43134343F000427B691A60A0
:103FD00000BF1C37BD465DF8047B704700F0FF034F
:103FE00080B485B000AF786039607B6860331A4672
:103FF0003B689B001344FB60FB681B6803F0F843BD
:1040000018461437BD465DF8047B704780B487B00E
:1040100000AFF860B9607A60FB6860331A46BB682D
:104020009B0013447B617B691B6823F000427B6823
:104030001A437B691A6000BF1C37BD465DF8047BDC
:10404000704780B487B000AFF860B9607A60FB68F1
:1040500030331A46BB681B0A9B0003F00C03134461
:104060007B617B691A68BB6803F01F031F2101FA9B
:1040700003F3DB431A407B689B0E03F01F01BB6810
:1040800003F01F0301FA03F31A437B691A6000BFB0
:104090001C37BD465DF8047B704780B487B000AF25
:1040A000F860B9607A60FB6814331A46BB685B0E2F
:1040B0009B0003F0040313447B617B691A68BB68AF
:1040C0001B0D03F01F03072101FA03F3DB431A4022
:1040D000BB681B0D03F01F03796801FA03F31A4351
:1040E0007B691A6000BF1C37BD465DF8047B7047D2
:1040F00080B485B000AFF860B9607A60FB68D3F82F
:10410000B020BB68C3F31203DB431A407B6803F0A3
:1041100018030849D940BB680B40C3F312031A4384
:10412000FB68C3F8B02000BF1437BD465DF8047BC0
:10413000704700BFFFFF070080B483B000AF786016
:104140007B689B6823F0204323F03F037A689360E9
:1041500000BF0C37BD465DF8047B704780B483B068
:1041600000AF78607B689B6803F00053B3F1005F99
:1041700001D1012300E0002318460C37BD465DF84D
:10418000047B704780B483B000AF78607B689B6825
:1041900023F0104323F03F0343F080527B689A6082
:1041A00000BF0C37BD465DF8047B704780B483B018
:1041B00000AF78607B689B6803F08053B3F1805F49
:1041C00001D1012300E0002318460C37BD465DF8FD
:1041D000047B704780B483B000AF78607B689B68D5
:1041E00003F00103012B01D1012300E00023184655
:1041F0000C37BD465DF8047B704780B483B000AFD8
:1042000078607B689B6803F00403042B01D10123D1
:1042100000E0002318460C37BD465DF8047B70476C
:1042200080B483B000AF78607B689B6803F00803BC
:10423000082B01D1012300E0002318460C37BD46AE
:104240005DF8047B7047000080B588B000AF7860EF
:104250000023FB770023FB607B68002B01D1012347
:1042600026E17B681B69002B7B685B6D002B09D105
:104270007868FFF747FA7B6800229A657B6800221E
:1042800083F850207B681B681846FFF767FF0346DA
:10429000002B04D07B681B681846FFF74DFF7B6836
:1042A0001B681846FFF782FF0346002B15D17B6879
:1042B0001B681846FFF766FF7F4B1B689B097F4A08
:1042C000A2FB03239B0901335B00FB6002E0FB6858
:1042D000013BFB60FB68002BF9D17B681B6818462B
:1042E000FFF764FF0346002B0DD17B685B6D43F045
:1042F00010027B685A657B689B6D43F001027B6806
:104300009A650123FB777B681B681846FFF775FFEA
:1043100078617B685B6D03F01003002B40F0BF8079
:104320007B69002B40F0BB807B685B6D23F481735D
:1043300043F002027B685A657B681B681846FFF7EA
:1043400049FF0346002B0BD15D48FFF743FF0346AF
:10435000002B05D17B685B6819465A48FFF7E8FDDA
:104360007B685B7E5A037B685B6B1A437B68DB6808
:104370001A437B689B681A437B6893F820301B04C0
:104380001343BB617B6893F82030012B06D17B6817
:104390005B6A013B5B04BA691343BB617B689B6A40
:1043A000002B09D07B689B6A03F470727B68DB6A20
:1043B0001343BA691343BB617B681B68DA68424BDD
:1043C00013407A681268B9690B43D3607B681B6835
:1043D0001846FFF725FF38617B69002B3DD13B690B
:1043E000002B3AD17B681B7E9A037B6893F83030B0
:1043F0005B001343BB617B681B68DB6823F480436D
:1044000023F002037A681268B9690B43D3607B68B2
:1044100093F83830012B18D17B681B681B6923F493
:10442000FF6323F004037A68D16B7A68126C11433E
:104430007A68526C11437A68926C0A431A437B681B
:104440001B6842F001021A6107E07B681B681A6969
:104450007B681B6822F001021A617B681B69012BD3
:104460000CD17B681B681B6B23F00F017B68DB6939
:104470005A1E7B681B680A431A6307E07B681B6847
:104480001A6B7B681B6822F00F021A637B685B6DF6
:1044900023F0030343F001027B685A6507E07B6861
:1044A0005B6D43F010027B685A650123FB77FB7F4D
:1044B00018462037BD4680BD10000020632D3E0504
:1044C000000004500003045007C0F0FF80B5B6B0F0
:1044D00000AF78603960002387F8D7300023BB60D5
:1044E0007B6893F85030012B01D10223BBE37B683A
:1044F000012283F850207B681B681846FFF77DFE79
:104500000346002B40F0A0833B685B68C7F8D030BF
:104510003B685B68052B24D83B685B68023B032B38
:104520001BD801A252F823F0394500084145000884
:1045300049450008514500080C23C7F8D03010E069
:104540001223C7F8D0300CE01823C7F8D03008E0A9
:104550004FF48073C7F8D03003E00623C7F8D0309B
:1045600000BF7B6818683B681B681A46D7F8D010F4
:10457000FFF767FD7B681B681846FFF73EFEC7F82C
:10458000CC007B681B681846FFF74AFEC7F8C800D6
:10459000D7F8CC30002B40F0A481D7F8C830002BDE
:1045A00040F09F817B6818683B6819683B689B688E
:1045B0001A46FFF772FD3B685A697B681B68DB6827
:1045C000DB0803F003035B0002FA03F3C7F8C4300F
:1045D0003B681B69042B0AD07B6818683B68196923
:1045E0003B681A68D7F8C430FFF7D6FC79E17B68DE
:1045F0001B6800211846FFF7F3FC0346C3F31203C0
:10460000002B0AD17B681B6800211846FFF7E8FCE5
:1046100003469B0E03F01F021EE07B681B6800210F
:104620001846FFF7DDFC0346C7F8B830D7F8B830B6
:1046300093FAA3F3C7F8BC30D7F8BC30C7F8B4304E
:10464000D7F8B430002B01D1202304E0D7F8B430E0
:10465000B3FA83F3DBB21A463B681B68C3F3120359
:10466000002B05D13B681B689B0E03F01F0318E06D
:104670003B681B68C7F8AC30D7F8AC3093FAA3F3AB
:10468000C7F8A830D7F8A830C7F8B030D7F8B0309E
:10469000002B01D1202304E0D7F8B030B3FA83F324
:1046A000DBB29A4206D17B681B68002200211846C3
:1046B000FFF7ACFC7B681B6801211846FFF790FCF4
:1046C0000346C3F31203002B0AD17B681B68012148
:1046D0001846FFF785FC03469B0E03F01F021EE001
:1046E0007B681B6801211846FFF77AFC0346C7F870
:1046F000A030D7F8A03093FAA3F3C7F89C30D7F8CE
:104700009C30C7F8A430D7F8A430002B01D1202367
:1047100004E0D7F8A430B3FA83F3DBB21A463B685F
:104720001B68C3F31203002B05D13B681B689B0E6B
:1047300003F01F0318E03B681B68C7F89430D7F8F4
:10474000943093FAA3F3C7F89030D7F89030C7F8B5
:104750009830D7F89830002B01D1202304E0D7F807
:104760009830B3FA83F3DBB29A4206D17B681B68B8
:10477000002201211846FFF749FC7B681B680221D3
:104780001846FFF72DFC0346C3F31203002B0AD192
:104790007B681B6802211846FFF722FC03469B0E2C
:1047A00003F01F021EE07B681B6802211846FFF71A
:1047B00017FC0346C7F88830D7F8883093FAA3F37C
:1047C000C7F88430D7F88430C7F88C30D7F88C30ED
:1047D000002B01D1202304E0D7F88C30B3FA83F307
:1047E000DBB21A463B681B68C3F31203002B05D1EA
:1047F0003B681B689B0E03F01F0314E03B681B68BB
:10480000FB67FB6F93FAA3F3BB67BB6FC7F88030FE
:10481000D7F88030002B01D1202304E0D7F8803076
:10482000B3FA83F3DBB29A4206D17B681B6800229D
:1048300002211846FFF7EAFB7B681B680321184634
:10484000FFF7CEFB0346C3F31203002B0AD17B68AC
:104850001B6803211846FFF7C3FB03469B0E03F0BA
:104860001F0217E07B681B6803211846FFF7B8FB9F
:1048700003463B673B6F93FAA3F3FB66FB6E7B67D4
:104880007B6F002B01D1202303E07B6FB3FA83F30E
:10489000DBB21A463B681B68C3F31203002B05D139
:1048A0003B681B689B0E03F01F0311E03B681B680D
:1048B0007B667B6E93FAA3F33B663B6EBB66BB6E77
:1048C000002B01D1202303E0BB6EB3FA83F3DBB2EC
:1048D0009A4206D17B681B68002203211846FFF725
:1048E00095FB7B681B681846FFF774FC0346002B9A
:1048F00040F040817B6818683B6819683B68DB685A
:104900001A46FFF7F5FB3B68DB688F4A934240F09D
:1049100031817B6818683B681B68C3F31203002B66
:104920000BD13B681B689B0E013303F01F03092B5F
:1049300094BF01230023DBB219E03B681B68BB6511
:10494000BB6D93FAA3F37B657B6DFB65FB6D002B61
:1049500001D1202303E0FB6DB3FA83F3DBB2013313
:1049600003F01F03092B94BF01230023DBB2002BAC
:1049700079D03B681B68C3F31203002B07D13B6857
:104980001B689B0E01339B0603F0F84215E03B6861
:104990001B68FB64FB6C93FAA3F3BB64BB6C3B65C5
:1049A0003B6D002B01D1202303E03B6DB3FA83F371
:1049B000DBB201339B0603F0F8423B681B68C3F38C
:1049C0001203002B09D13B681B689B0E013303F0D7
:1049D0001F03012101FA03F317E03B681B683B64E6
:1049E0003B6C93FAA3F3FB63FB6B7B647B6C002B48
:1049F00001D1202303E07B6CB3FA83F3DBB20133F4
:104A000003F01F03012101FA03F342EA03013B68AB
:104A10001B68C3F31203002B0AD13B681B689B0E73
:104A2000013303F01F0213465B0013441B0518E01B
:104A30003B681B687B637B6B93FAA3F33B633B6B25
:104A4000BB63BB6B002B01D1202303E0BB6BB3FA2C
:104A500083F3DBB2013303F01F0213465B00134400
:104A60001B050B4381E03B681B68C3F31203002B5B
:104A700007D13B681B689B0E01339B0603F0F8428D
:104A800015E03B681B68BB62BB6A93FAA3F37B62C9
:104A90007B6AFB62FB6A002B01D1202303E0FB6AE7
:104AA000B3FA83F3DBB201339B0603F0F8423B68B1
:104AB0001B68C3F31203002B09D13B681B689B0ED4
:104AC000013303F01F03012101FA03F317E03B68F0
:104AD0001B68FB61FB6993FAA3F3BB61BB693B6293
:104AE0003B6A002B01D1202303E03B6AB3FA83F336
:104AF000DBB2013303F01F03012101FA03F342EAA1
:104B000003013B681B68C3F31203002B0DD13B6804
:104B10001B689B0E013303F01F0213465B00134416
:104B20001E3B1B0543F000731EE03B681B683B61A6
:104B30003B6993FAA3F3FB60FB687B617B69002B05
:104B400004D1202306E000BF00007F407B69B3FA58
:104B500083F3DBB2013303F01F0213465B001344FF
:104B60001E3B1B0543F000730B433A6892681946DD
:104B7000FFF793FA3B681A683D4B1340002B6CD04B
:104B80003C48FFF7FBF9C7F8C0003B681B683A4A8E
:104B9000934227D1D7F8C03003F40003002B21D172
:104BA0007B681B68354A934257D1D7F8C03043F42D
:104BB000000319462F48FFF7CEF9314B1B689B09BC
:104BC000304AA2FB03239B095A1C13465B00134483
:104BD0009B00BB6002E0BB68013BBB60BB68002B75
:104BE000F9D13AE03B681B68274A934213D1D7F8C2
:104BF000C03003F08073002B0DD17B681B681F4A07
:104C000093422AD1D7F8C03043F08073194619482F
:104C1000FFF7A1F921E03B681B681C4A93421CD1B5
:104C2000D7F8C03003F48003002B16D17B681B68D3
:104C3000124A934211D1D7F8C03043F48003194689
:104C40000C48FFF788F908E07B685B6D43F02002B1
:104C50007B685A65012387F8D7307B68002283F888
:104C6000502097F8D7301846D837BD4680BD00BFD2
:104C70000000088000030450000052C700000450E8
:104C800010000020632D3E05000084CB0100008051
:104C900080B485B000AF78607B6803F00703FB60E9
:104CA0000C4BDB68BB60BA684FF6FF031340BB6078
:104CB000FB681A02BB68134343F0BF6343F400333D
:104CC000BB60044ABB68D36000BF1437BD465DF8C3
:104CD000047B704700ED00E080B400AF044BDB685C
:104CE0001B0A03F007031846BD465DF8047B7047B6
:104CF00000ED00E080B483B000AF0346FB7197F98C
:104D00000730002B0BDBFB7903F01F02074997F9F3
:104D100007305B09012000FA02F241F8232000BFAE
:104D20000C37BD465DF8047B704700BF00E100E032
:104D300080B483B000AF03463960FB7197F9073048
:104D4000002B0ADB3B68DAB20C4997F907301201F5
:104D5000D2B20B4483F800230AE03B68DAB2084978
:104D6000FB7903F00F03043B1201D2B20B441A7615
:104D700000BF0C37BD465DF8047B704700E100E0E2
:104D800000ED00E080B489B000AFF860B9607A60EF
:104D9000FB6803F00703FB61FB69C3F10703042B06
:104DA00028BF0423BB61FB690433062B02D9FB69CE
:104DB000033B00E000237B614FF0FF32BB6902FA46
:104DC00003F3DA43BB681A407B699A404FF0FF3126
:104DD0007B6901FA03F3D9437B680B401343184600
:104DE0002437BD465DF8047B7047000080B582B073
:104DF00000AF78607B68013BB3F1807F01D3012372
:104E00000FE00A4A7B68013B53600F214FF0FF30EF
:104E1000FFF78EFF054B00229A60044B07221A60B1
:104E2000002318460837BD4680BD00BF10E000E0F3
:104E300080B582B000AF78607868FFF729FF00BFC7
:104E40000837BD4680BD80B586B000AF0346B96067
:104E50007A60FB7300237B61FFF73EFF78617A681D
:104E6000B9687869FFF78EFF024697F90F3011464F
:104E70001846FFF75DFF00BF1837BD4680BD80B5FF
:104E800082B000AF0346FB7197F907301846FFF771
:104E900031FF00BF0837BD4680BD80B582B000AF8E
:104EA00078607868FFF7A2FF034618460837BD46CA
:104EB00080BD000080B483B000AF78607B68002BB9
:104EC00001D1012398E07B681B681A464D4B9A423A
:104ED0000FD87B681B681A464B4B13444B4AA2FB06
:104EE00003231B099A007B685A647B68484A1A644A
:104EF0000EE07B681B681A46464B1344434AA2FBEC
:104F000003231B099A007B685A647B68424A1A642F
:104F10007B68022283F825207B681B681B687A68FF
:104F2000126823F4FF4323F0700313607B681B684F
:104F300019687B689A687B68DB681A437B681B6921
:104F40001A437B685B691A437B689B691A437B68D9
:104F5000DB691A437B681B6A1A437B681B680A4338
:104F60001A607B689B68B3F5804F39D07B681B6CF7
:104F7000274A93421AD1294B1A687B685B6C03F06D
:104F80001C030F2101FA03F3DB43244913400B6098
:104F9000224B1A687B6859687B685B6C03F01C03C2
:104FA00001FA03F31D4913430B6019E01C4B1A6807
:104FB0007B685B6C03F01C030F2101FA03F3DB43F6
:104FC000174913400B60164B1A687B6859687B6859
:104FD0005B6C03F01C0301FA03F3114913430B60EC
:104FE0007B680022DA637B68012283F825207B68D6
:104FF000002283F82420002318460C37BD465DF8B4
:10500000047B704707040240F8FFFDBFCDCCCCCC39
:1050100000000240F8FBFDBF00040240A80002406F
:10502000A804024080B586B000AFF860B9607A602D
:105030003B600023FB75FB6893F82430012B01D102
:1050400002234EE0FB68012283F82420FB6893F8DA
:105050002530DBB2012B3AD1FB68022283F82520F0
:10506000FB680022DA63FB681B681A68FB681B6830
:1050700022F001021A603B687A68B968F86800F0AB
:1050800089F9FB681B6B002B08D0FB681B681A684A
:10509000FB681B6842F00E021A600FE0FB681B6899
:1050A0001A68FB681B6822F004021A60FB681B6820
:1050B0001A68FB681B6842F00A021A60FB681B68EA
:1050C0001A68FB681B6842F001021A6008E0FB687E
:1050D0008022DA63FB68002283F824200123FB7519
:1050E000FB7D18461837BD4680BD80B483B000AF45
:1050F00078607B68002B01D1012331E07B6893F855
:105100002530DBB2022B08D07B680422DA637B688F
:10511000002283F82420012322E07B681B681A68A0
:105120007B681B6822F001021A607B681B681A68A2
:105130007B681B6822F00E021A607B685B6C03F0D0
:105140001C027B681B6C012101FA02F25A607B6829
:10515000012283F825207B68002283F82420002385
:1051600018460C37BD465DF8047B704780B584B0A7
:1051700000AF78600023FB737B6893F82530DBB2C7
:10518000022B05D07B680422DA630123FB7329E03C
:105190007B681B681A687B681B6822F001021A6032
:1051A0007B681B681A687B681B6822F00E021A6015
:1051B0007B685B6C03F01C027B681B6C012101FAAD
:1051C00002F25A607B68012283F825207B68002266
:1051D00083F824207B689B6B002B03D07B689B6B40
:1051E00078689847FB7B18461037BD4680BD0000A5
:1051F00080B584B000AF78607B681B6C1B68FB6077
:105200007B681B681B68BB607B685B6C03F01C03DE
:1052100004229A40FB681340002B27D0BB6803F0A0
:105220000403002B22D07B681B681B6803F020035B
:10523000002B07D17B681B681A687B681B6822F00B
:1052400004021A607B685B6C03F01C027B681B6CB9
:10525000042101FA02F25A607B681B6B002B00F0FC
:1052600081807B681B6B786898477BE07B685B6C10
:1052700003F01C0302229A40FB681340002B3DD030
:10528000BB6803F00203002B38D07B681B681B68E7
:1052900003F02003002B0BD17B681B681A687B6826
:1052A0001B6822F00A021A607B68012283F825201D
:1052B0007B681B681A462E4B9A4209D97B685B6C47
:1052C00003F01C032B4A022101FA03F3536008E0A8
:1052D0007B685B6C03F01C03274A022101FA03F38D
:1052E00053607B68002283F824207B68DB6A002BF4
:1052F00038D07B68DB6A7868984733E07B685B6C02
:1053000003F01C0308229A40FB681340002B2AD0AC
:10531000BB6803F00803002B25D07B681B681A6864
:105320007B681B6822F00E021A607B685B6C03F0DE
:105330001C027B681B6C012101FA02F25A607B6837
:105340000122DA637B68012283F825207B68002232
:1053500083F824207B685B6B002B04D07B685B6B3D
:105360007868984700BF00BF1037BD4680BD00BFBA
:1053700080000240000402400000024080B483B07C
:1053800000AF78607B68DB6B18460C37BD465DF874
:10539000047B704780B485B000AFF860B9607A6074
:1053A0003B60FB685B6C03F01C02FB681B6C01211B
:1053B00001FA02F25A60FB681B683A685A60FB689F
:1053C0009B68102B08D1FB681B687A689A60FB68A1
:1053D0001B68BA68DA6007E0FB681B68BA689A6005
:1053E000FB681B687A68DA6000BF1437BD465DF859
:1053F000047B704780B487B000AF786039600023C9
:105400007B6154E13B681A6801217B6901FA03F36F
:105410001340FB60FB68002B00F046813B685B6833
:1054200003F00303012B05D03B685B6803F0030323
:10543000022B30D17B689B683B617B695B00032258
:1054400002FA03F3DB433A6913403B613B68DA68D5
:105450007B695B0002FA03F33A6913433B617B68A3
:105460003A699A607B685B683B6101227B6902FA5A
:1054700003F3DB433A6913403B613B685B681B09FC
:1054800003F001027B6902FA03F33A6913433B61BB
:105490007B683A695A603B685B6803F00303032B3F
:1054A00017D07B68DB683B617B695B00032202FAF3
:1054B00003F3DB433A6913403B613B689A687B69BD
:1054C0005B0002FA03F33A6913433B617B683A6974
:1054D000DA603B685B6803F00303022B23D17B692E
:1054E000DA087B68083253F822303B617B6903F0AD
:1054F00007039B000F2202FA03F3DB433A691340D0
:105500003B613B681A697B6903F007039B0002FA61
:1055100003F33A6913433B617B69DA087B6808321D
:10552000396943F822107B681B683B617B695B002B
:10553000032202FA03F3DB433A6913403B613B6801
:105540005B6803F003027B695B0002FA03F33A69CC
:1055500013433B617B683A691A603B685B6803F4FC
:105560004033002B00F0A080584B1B6E574A43F08D
:1055700001031366554B1B6E03F00103BB60BB6850
:10558000534A7B699B08023352F823303B617B69A5
:1055900003F003039B000F2202FA03F3DB433A6993
:1055A00013403B617B68B3F1904F19D07B68494A47
:1055B000934213D07B68484A93420DD07B68474A98
:1055C000934207D07B68464A934201D1042308E006
:1055D000072306E0032304E0022302E0012300E0A6
:1055E00000237A6902F00302920093403A69134360
:1055F0003B6137497B699B0802333A6941F82320B4
:10560000384B9B683B61FB68DB433A6913403B6165
:105610003B685B6803F48013002B03D03A69FB6896
:1056200013433B612F4A3B6993602E4BDB683B6120
:10563000FB68DB433A6913403B613B685B6803F4FA
:105640000013002B03D03A69FB6813433B61254AE2
:105650003B69D360234B5B683B61FB68DB433A6982
:1056600013403B613B685B6803F40033002B03D0BD
:105670003A69FB6813433B611A4A3B695360194B13
:105680001B683B61FB68DB433A6913403B613B6845
:105690005B6803F48033002B03D03A69FB68134343
:1056A0003B61104A3B6913607B6901337B613B6856
:1056B0001A687B6922FA03F3002B7FF4A3AE00BFC4
:1056C00000BF1C37BD465DF8047B704700100240E8
:1056D000000001400004004800080048000C004899
:1056E000001000480004014080B483B000AF78602F
:1056F0000B467B8013467B707B78002B03D07A8827
:105700007B689A6102E07A887B689A6200BF0C37F6
:10571000BD465DF8047B704780B582B000AF03469C
:10572000FB80084B5A69FB881340002B06D0054AC2
:10573000FB885361FB881846FDF77EF800BF0837E9
:10574000BD4680BD0004014080B582B000AF7860E6
:105750007B68002B01D101238DE07B6893F84130F9
:10576000DBB2002B06D17B68002283F840207868EA
:10577000FEF72CF87B68242283F841207B681B68A5
:105780001A687B681B6822F001021A607B685A68FD
:105790007B681B6822F070621A617B681B689A68DC
:1057A0007B681B6822F400429A607B68DB68012BEF
:1057B00007D17B689A687B681B6842F400429A6054
:1057C00006E07B689A687B681B6842F404429A6032
:1057D0007B68DB68022B08D17B681B685A687B6892
:1057E0001B6842F400625A6007E07B681B685A68D5
:1057F0007B681B6822F400625A607B681B685B68E8
:105800007A68126843F0007343F4004353607B6886
:105810001B68DA687B681B6822F40042DA607B68E8
:105820001A697B685B6942EA03017B689B691A021B
:105830007B681B680A43DA607B68D9697B681A6AEF
:105840007B681B680A431A607B681B681A687B6860
:105850001B6842F001021A607B6800225A647B6870
:10586000202283F841207B6800221A637B68002293
:1058700083F84220002318460837BD4680BD00004B
:1058800080B588B002AFF860084611461A46034654
:105890007B810B463B811346FB80FB6893F84130CC
:1058A000DBB2202B40F0F9803B6A002B02D0BB8C8E
:1058B000002B05D1FB684FF400725A640123EDE020
:1058C000FB6893F84030012B01D10223E6E0FB682E
:1058D000012283F84020FEF7DBFA78617B690093B0
:1058E000192301224FF40041F86800F0C3FA03467F
:1058F000002B01D00123D1E0FB68212283F8412055
:10590000FB68402283F84220FB6800225A64FB684F
:105910003A6A5A62FB68BA8C5A85FB6800225A635D
:10592000F8883A8979897B690193BB6A00930346B9
:10593000F86800F0D3F90346002B05D0FB6800227D
:1059400083F840200123A9E0FB685B8D9BB2FF2B0D
:105950000ED9FB68FF221A85FB681B8DDAB27989A4
:10596000002300934FF08073F86800F047FC0FE0CD
:10597000FB685B8D9AB2FB681A85FB681B8DDAB2F7
:105980007989002300934FF00073F86800F036FC2B
:105990007A69B96AF86800F0C6FA0346002B01D0AC
:1059A00001237BE0FB685B6A1A78FB681B689A62DC
:1059B000FB685B6A5A1CFB685A62FB685B8D9BB292
:1059C000013B9AB2FB685A85FB681B8D013B9AB27A
:1059D000FB681A85FB685B8D9BB2002B34D0FB689B
:1059E0001B8D002B30D17B690093BB6A0022802184
:1059F000F86800F03FFA0346002B01D001234DE088
:105A0000FB685B8D9BB2FF2B0ED9FB68FF221A85CA
:105A1000FB681B8DDAB27989002300934FF0807305
:105A2000F86800F0EBFB0FE0FB685B8D9AB2FB6857
:105A30001A85FB681B8DDAB27989002300934FF039
:105A40000073F86800F0DAFBFB685B8D9BB2002BFB
:105A50009ED17A69B96AF86800F0ACFA0346002B67
:105A600001D001231AE0FB681B682022DA61FB6881
:105A70001B685968FB681A680A4B0B405360FB6847
:105A8000202283F84120FB68002283F84220FB6833
:105A9000002283F84020002300E002231846183734
:105AA000BD4680BD00E800FE80B588B002AFF8605A
:105AB000084611461A4603467B810B463B81134636
:105AC000FB80FB6893F84130DBB2202B40F0FD8077
:105AD0003B6A002B02D0BB8C002B05D1FB684FF436
